{
  "_format": "hh-sol-artifact-1",
  "contractName": "BEP20Price",
  "sourceName": "contracts/ERC20Price.sol",
  "abi": [
    {
      "anonymous": false,
      "inputs": [
        {
          "indexed": true,
          "internalType": "address",
          "name": "previousOwner",
          "type": "address"
        },
        {
          "indexed": true,
          "internalType": "address",
          "name": "newOwner",
          "type": "address"
        }
      ],
      "name": "OwnershipTransferred",
      "type": "event"
    },
    {
      "inputs": [],
      "name": "avaxAddress",
      "outputs": [
        {
          "internalType": "address",
          "name": "",
          "type": "address"
        }
      ],
      "stateMutability": "view",
      "type": "function"
    },
    {
      "inputs": [],
      "name": "factoryAddress",
      "outputs": [
        {
          "internalType": "address",
          "name": "",
          "type": "address"
        }
      ],
      "stateMutability": "view",
      "type": "function"
    },
    {
      "inputs": [],
      "name": "getAVAXPrice",
      "outputs": [
        {
          "internalType": "uint256",
          "name": "",
          "type": "uint256"
        }
      ],
      "stateMutability": "view",
      "type": "function"
    },
    {
      "inputs": [
        {
          "internalType": "address",
          "name": "_token",
          "type": "address"
        }
      ],
      "name": "getTokenPrice",
      "outputs": [
        {
          "internalType": "uint256",
          "name": "",
          "type": "uint256"
        }
      ],
      "stateMutability": "view",
      "type": "function"
    },
    {
      "inputs": [
        {
          "internalType": "address",
          "name": "_factoryAddress",
          "type": "address"
        },
        {
          "internalType": "address",
          "name": "_avaxAddress",
          "type": "address"
        },
        {
          "internalType": "address",
          "name": "_usdtAddress",
          "type": "address"
        }
      ],
      "name": "initialize",
      "outputs": [],
      "stateMutability": "nonpayable",
      "type": "function"
    },
    {
      "inputs": [],
      "name": "owner",
      "outputs": [
        {
          "internalType": "address",
          "name": "",
          "type": "address"
        }
      ],
      "stateMutability": "view",
      "type": "function"
    },
    {
      "inputs": [],
      "name": "renounceOwnership",
      "outputs": [],
      "stateMutability": "nonpayable",
      "type": "function"
    },
    {
      "inputs": [
        {
          "internalType": "address",
          "name": "newOwner",
          "type": "address"
        }
      ],
      "name": "transferOwnership",
      "outputs": [],
      "stateMutability": "nonpayable",
      "type": "function"
    },
    {
      "inputs": [],
      "name": "usdtAddress",
      "outputs": [
        {
          "internalType": "address",
          "name": "",
          "type": "address"
        }
      ],
      "stateMutability": "view",
      "type": "function"
    }
  ],
  "bytecode": "0x608060405234801561001057600080fd5b5061001a3361001f565b61006f565b600080546001600160a01b038381166001600160a01b0319831681178455604051919092169283917f8be0079c531659141344cd1fd0a4f28419497f9722a3daafe3b4186f6b6457e09190a35050565b610a2b8061007e6000396000f3fe608060405234801561001057600080fd5b50600436106100a35760003560e01c80639ab4a44511610076578063d02641a01161005b578063d02641a01461012c578063dde8a0041461014d578063f2fde38b1461015557600080fd5b80639ab4a44514610106578063c0c53b8b1461011957600080fd5b80633fd891fb146100a8578063715018a6146100d85780638da5cb5b146100e2578063966dae0e146100f3575b600080fd5b6002546100bb906001600160a01b031681565b6040516001600160a01b0390911681526020015b60405180910390f35b6100e0610168565b005b6000546001600160a01b03166100bb565b6001546100bb906001600160a01b031681565b6003546100bb906001600160a01b031681565b6100e06101273660046108e7565b6101d3565b61013f61013a3660046108af565b610279565b6040519081526020016100cf565b61013f6103cd565b6100e06101633660046108af565b6103dc565b6000546001600160a01b031633146101c75760405162461bcd60e51b815260206004820181905260248201527f4f776e61626c653a2063616c6c6572206973206e6f7420746865206f776e657260448201526064015b60405180910390fd5b6101d160006104be565b565b6000546001600160a01b0316331461022d5760405162461bcd60e51b815260206004820181905260248201527f4f776e61626c653a2063616c6c6572206973206e6f7420746865206f776e657260448201526064016101be565b600180546001600160a01b0394851673ffffffffffffffffffffffffffffffffffffffff1991821617909155600280549385169382169390931790925560038054919093169116179055565b600254600090819081906102979085906001600160a01b031661051b565b9150915060006102a5610711565b90506103c4600260009054906101000a90046001600160a01b03166001600160a01b031663313ce5676040518163ffffffff1660e01b815260040160206040518083038186803b1580156102f857600080fd5b505afa15801561030c573d6000803e3d6000fd5b505050506040513d601f19601f820116820180604052508101906103309190610974565b60ff166103be856103be896001600160a01b031663313ce5676040518163ffffffff1660e01b815260040160206040518083038186803b15801561037357600080fd5b505afa158015610387573d6000803e3d6000fd5b505050506040513d601f19601f820116820180604052508101906103ab9190610974565b60ff166103b8888861086d565b9061086d565b90610880565b95945050505050565b60006103d7610711565b905090565b6000546001600160a01b031633146104365760405162461bcd60e51b815260206004820181905260248201527f4f776e61626c653a2063616c6c6572206973206e6f7420746865206f776e657260448201526064016101be565b6001600160a01b0381166104b25760405162461bcd60e51b815260206004820152602660248201527f4f776e61626c653a206e6577206f776e657220697320746865207a65726f206160448201527f646472657373000000000000000000000000000000000000000000000000000060648201526084016101be565b6104bb816104be565b50565b600080546001600160a01b0383811673ffffffffffffffffffffffffffffffffffffffff19831681178455604051919092169283917f8be0079c531659141344cd1fd0a4f28419497f9722a3daafe3b4186f6b6457e09190a35050565b6001546040517fe6a439050000000000000000000000000000000000000000000000000000000081526001600160a01b0384811660048301528381166024830152600092839283929091169063e6a439059060440160206040518083038186803b15801561058857600080fd5b505afa15801561059c573d6000803e3d6000fd5b505050506040513d601f19601f820116820180604052508101906105c091906108cb565b90506000819050600080826001600160a01b0316630902f1ac6040518163ffffffff1660e01b815260040160606040518083038186803b15801561060357600080fd5b505afa158015610617573d6000803e3d6000fd5b505050506040513d601f19601f8201168201806040525081019061063b9190610931565b506dffffffffffffffffffffffffffff1691506dffffffffffffffffffffffffffff1691506000836001600160a01b0316630dfe16816040518163ffffffff1660e01b815260040160206040518083038186803b15801561069b57600080fd5b505afa1580156106af573d6000803e3d6000fd5b505050506040513d601f19601f820116820180604052508101906106d391906108cb565b9050886001600160a01b0316816001600160a01b031614156106fd5750909450925061070a915050565b509450925061070a915050565b9250929050565b60025460035460009182918291610734916001600160a01b03918216911661051b565b91509150610866600360009054906101000a90046001600160a01b03166001600160a01b031663313ce5676040518163ffffffff1660e01b815260040160206040518083038186803b15801561078957600080fd5b505afa15801561079d573d6000803e3d6000fd5b505050506040513d601f19601f820116820180604052508101906107c19190610974565b60ff166103be846103be600260009054906101000a90046001600160a01b03166001600160a01b031663313ce5676040518163ffffffff1660e01b815260040160206040518083038186803b15801561081957600080fd5b505afa15801561082d573d6000803e3d6000fd5b505050506040513d601f19601f820116820180604052508101906108519190610974565b60ff166103b887670de0b6b3a764000061086d565b9250505090565b600061087982846109b5565b9392505050565b60006108798284610995565b80516dffffffffffffffffffffffffffff811681146108aa57600080fd5b919050565b6000602082840312156108c0578081fd5b8135610879816109e0565b6000602082840312156108dc578081fd5b8151610879816109e0565b6000806000606084860312156108fb578182fd5b8335610906816109e0565b92506020840135610916816109e0565b91506040840135610926816109e0565b809150509250925092565b600080600060608486031215610945578283fd5b61094e8461088c565b925061095c6020850161088c565b9150604084015163ffffffff81168114610926578182fd5b600060208284031215610985578081fd5b815160ff81168114610879578182fd5b6000826109b057634e487b7160e01b81526012600452602481fd5b500490565b60008160001904831182151516156109db57634e487b7160e01b81526011600452602481fd5b500290565b6001600160a01b03811681146104bb57600080fdfea264697066735822122003b44b30ce9b3503de94203296e2074a0039ce6f596fc00eaeb93d5f3e383ba764736f6c63430008040033",
  "linkReferences": {},
  "deployedLinkReferences": {}
}