{
  "_format": "hh-sol-artifact-1",
  "contractName": "Exchange",
  "sourceName": "contracts/Exchange.sol",
  "abi": [
    {
      "inputs": [],
      "stateMutability": "nonpayable",
      "type": "constructor"
    },
    {
      "anonymous": false,
      "inputs": [
        {
          "indexed": false,
          "internalType": "address",
          "name": "owner",
          "type": "address"
        },
        {
          "indexed": false,
          "internalType": "address",
          "name": "collectionAddress",
          "type": "address"
        },
        {
          "indexed": false,
          "internalType": "uint256",
          "name": "tokenId",
          "type": "uint256"
        },
        {
          "indexed": false,
          "internalType": "address",
          "name": "buyer",
          "type": "address"
        },
        {
          "indexed": false,
          "internalType": "address",
          "name": "erc20Address",
          "type": "address"
        },
        {
          "indexed": false,
          "internalType": "uint256",
          "name": "offerAmount",
          "type": "uint256"
        }
      ],
      "name": "AcceptOffer",
      "type": "event"
    },
    {
      "anonymous": false,
      "inputs": [
        {
          "indexed": false,
          "internalType": "address",
          "name": "owner",
          "type": "address"
        },
        {
          "indexed": false,
          "internalType": "address",
          "name": "collectionAddress",
          "type": "address"
        },
        {
          "indexed": false,
          "internalType": "uint256",
          "name": "tokenId",
          "type": "uint256"
        },
        {
          "indexed": false,
          "internalType": "address",
          "name": "buyer",
          "type": "address"
        },
        {
          "indexed": false,
          "internalType": "address",
          "name": "erc20Address",
          "type": "address"
        }
      ],
      "name": "AuctionEnd",
      "type": "event"
    },
    {
      "anonymous": false,
      "inputs": [
        {
          "indexed": false,
          "internalType": "address",
          "name": "owner",
          "type": "address"
        },
        {
          "indexed": false,
          "internalType": "address",
          "name": "collectionAddress",
          "type": "address"
        },
        {
          "indexed": false,
          "internalType": "uint256",
          "name": "tokenId",
          "type": "uint256"
        },
        {
          "indexed": false,
          "internalType": "address",
          "name": "buyer",
          "type": "address"
        },
        {
          "indexed": false,
          "internalType": "address",
          "name": "erc20Address",
          "type": "address"
        },
        {
          "indexed": false,
          "internalType": "uint256",
          "name": "amount",
          "type": "uint256"
        }
      ],
      "name": "Bid",
      "type": "event"
    },
    {
      "anonymous": false,
      "inputs": [
        {
          "indexed": false,
          "internalType": "address",
          "name": "owner",
          "type": "address"
        },
        {
          "indexed": false,
          "internalType": "address",
          "name": "collectionAddress",
          "type": "address"
        },
        {
          "indexed": false,
          "internalType": "uint256",
          "name": "tokenId",
          "type": "uint256"
        },
        {
          "indexed": false,
          "internalType": "address",
          "name": "buyer",
          "type": "address"
        },
        {
          "indexed": false,
          "internalType": "address",
          "name": "erc20Address",
          "type": "address"
        },
        {
          "indexed": false,
          "internalType": "uint256",
          "name": "amount",
          "type": "uint256"
        }
      ],
      "name": "Buy",
      "type": "event"
    },
    {
      "anonymous": false,
      "inputs": [
        {
          "indexed": false,
          "internalType": "address",
          "name": "owner",
          "type": "address"
        },
        {
          "indexed": false,
          "internalType": "address",
          "name": "collectionAddress",
          "type": "address"
        },
        {
          "indexed": false,
          "internalType": "uint256",
          "name": "tokenId",
          "type": "uint256"
        },
        {
          "indexed": false,
          "internalType": "address",
          "name": "buyer",
          "type": "address"
        },
        {
          "indexed": false,
          "internalType": "uint256",
          "name": "amount",
          "type": "uint256"
        }
      ],
      "name": "BuyWithStableCoin",
      "type": "event"
    },
    {
      "anonymous": false,
      "inputs": [
        {
          "indexed": false,
          "internalType": "address",
          "name": "owner",
          "type": "address"
        },
        {
          "indexed": false,
          "internalType": "address",
          "name": "collectionAddress",
          "type": "address"
        },
        {
          "indexed": false,
          "internalType": "uint256",
          "name": "tokenId",
          "type": "uint256"
        },
        {
          "indexed": false,
          "internalType": "address",
          "name": "buyer",
          "type": "address"
        },
        {
          "indexed": false,
          "internalType": "address",
          "name": "erc20Address",
          "type": "address"
        }
      ],
      "name": "CancelBid",
      "type": "event"
    },
    {
      "anonymous": false,
      "inputs": [
        {
          "indexed": false,
          "internalType": "address",
          "name": "owner",
          "type": "address"
        },
        {
          "indexed": false,
          "internalType": "address",
          "name": "collectionAddress",
          "type": "address"
        },
        {
          "indexed": false,
          "internalType": "uint256",
          "name": "tokenId",
          "type": "uint256"
        },
        {
          "indexed": false,
          "internalType": "address",
          "name": "buyer",
          "type": "address"
        },
        {
          "indexed": false,
          "internalType": "address",
          "name": "erc20Address",
          "type": "address"
        }
      ],
      "name": "CancelOffer",
      "type": "event"
    },
    {
      "anonymous": false,
      "inputs": [
        {
          "indexed": false,
          "internalType": "address",
          "name": "owner",
          "type": "address"
        },
        {
          "indexed": false,
          "internalType": "address",
          "name": "collectionAddress",
          "type": "address"
        },
        {
          "indexed": false,
          "internalType": "uint256",
          "name": "tokenId",
          "type": "uint256"
        }
      ],
      "name": "CancelSell",
      "type": "event"
    },
    {
      "anonymous": false,
      "inputs": [
        {
          "indexed": false,
          "internalType": "address",
          "name": "owner",
          "type": "address"
        },
        {
          "indexed": false,
          "internalType": "address",
          "name": "collectionAddress",
          "type": "address"
        },
        {
          "indexed": false,
          "internalType": "uint256",
          "name": "tokenId",
          "type": "uint256"
        },
        {
          "indexed": false,
          "internalType": "uint256",
          "name": "price",
          "type": "uint256"
        },
        {
          "indexed": false,
          "internalType": "bool",
          "name": "isStableCoin",
          "type": "bool"
        },
        {
          "indexed": false,
          "internalType": "address[]",
          "name": "erc20ContractAddresses",
          "type": "address[]"
        },
        {
          "indexed": false,
          "internalType": "enum OrderType",
          "name": "orderType",
          "type": "uint8"
        },
        {
          "indexed": false,
          "internalType": "uint256",
          "name": "auctionEndTime",
          "type": "uint256"
        },
        {
          "indexed": false,
          "internalType": "enum ListBaseCurrency",
          "name": "baseCurrency",
          "type": "uint8"
        }
      ],
      "name": "List",
      "type": "event"
    },
    {
      "anonymous": false,
      "inputs": [
        {
          "indexed": false,
          "internalType": "address",
          "name": "collectionAddress",
          "type": "address"
        },
        {
          "indexed": false,
          "internalType": "uint256",
          "name": "tokenId",
          "type": "uint256"
        },
        {
          "indexed": false,
          "internalType": "address",
          "name": "owner",
          "type": "address"
        }
      ],
      "name": "NFTBurn",
      "type": "event"
    },
    {
      "anonymous": false,
      "inputs": [
        {
          "indexed": false,
          "internalType": "address",
          "name": "collectionAddress",
          "type": "address"
        },
        {
          "indexed": false,
          "internalType": "uint256",
          "name": "supply",
          "type": "uint256"
        },
        {
          "indexed": false,
          "internalType": "address",
          "name": "owner",
          "type": "address"
        }
      ],
      "name": "NFTMint",
      "type": "event"
    },
    {
      "anonymous": false,
      "inputs": [
        {
          "indexed": false,
          "internalType": "address",
          "name": "collectionAddress",
          "type": "address"
        },
        {
          "indexed": false,
          "internalType": "uint256",
          "name": "tokenId",
          "type": "uint256"
        },
        {
          "indexed": false,
          "internalType": "address",
          "name": "from",
          "type": "address"
        },
        {
          "indexed": false,
          "internalType": "address",
          "name": "to",
          "type": "address"
        }
      ],
      "name": "NFTTransfer",
      "type": "event"
    },
    {
      "anonymous": false,
      "inputs": [
        {
          "indexed": false,
          "internalType": "address",
          "name": "owner",
          "type": "address"
        },
        {
          "indexed": false,
          "internalType": "address",
          "name": "collectionAddress",
          "type": "address"
        },
        {
          "indexed": false,
          "internalType": "uint256",
          "name": "tokenId",
          "type": "uint256"
        },
        {
          "indexed": false,
          "internalType": "address",
          "name": "buyer",
          "type": "address"
        },
        {
          "indexed": false,
          "internalType": "address",
          "name": "erc20Address",
          "type": "address"
        },
        {
          "indexed": false,
          "internalType": "uint256",
          "name": "offerAmount",
          "type": "uint256"
        }
      ],
      "name": "Offer",
      "type": "event"
    },
    {
      "anonymous": false,
      "inputs": [
        {
          "indexed": true,
          "internalType": "address",
          "name": "previousOwner",
          "type": "address"
        },
        {
          "indexed": true,
          "internalType": "address",
          "name": "newOwner",
          "type": "address"
        }
      ],
      "name": "OwnershipTransferred",
      "type": "event"
    },
    {
      "anonymous": false,
      "inputs": [
        {
          "indexed": true,
          "internalType": "uint256",
          "name": "fee",
          "type": "uint256"
        }
      ],
      "name": "SetServiceFee",
      "type": "event"
    },
    {
      "anonymous": false,
      "inputs": [
        {
          "indexed": false,
          "internalType": "address",
          "name": "erc20Address",
          "type": "address"
        },
        {
          "indexed": false,
          "internalType": "uint256",
          "name": "amount",
          "type": "uint256"
        },
        {
          "indexed": false,
          "internalType": "address",
          "name": "to",
          "type": "address"
        }
      ],
      "name": "Withdraw",
      "type": "event"
    },
    {
      "inputs": [
        {
          "internalType": "address",
          "name": "collectionAddress",
          "type": "address"
        },
        {
          "internalType": "uint256",
          "name": "tokenId",
          "type": "uint256"
        },
        {
          "internalType": "address",
          "name": "buyer",
          "type": "address"
        },
        {
          "internalType": "address",
          "name": "erc20Address",
          "type": "address"
        },
        {
          "internalType": "uint256",
          "name": "offerPrice",
          "type": "uint256"
        }
      ],
      "name": "acceptOffer",
      "outputs": [],
      "stateMutability": "nonpayable",
      "type": "function"
    },
    {
      "inputs": [
        {
          "internalType": "address",
          "name": "owner",
          "type": "address"
        },
        {
          "internalType": "address",
          "name": "collectionAddress",
          "type": "address"
        },
        {
          "internalType": "uint256",
          "name": "tokenId",
          "type": "uint256"
        },
        {
          "internalType": "address",
          "name": "erc20Address",
          "type": "address"
        },
        {
          "internalType": "uint256",
          "name": "amount",
          "type": "uint256"
        }
      ],
      "name": "bid",
      "outputs": [],
      "stateMutability": "nonpayable",
      "type": "function"
    },
    {
      "inputs": [
        {
          "internalType": "address",
          "name": "owner",
          "type": "address"
        },
        {
          "internalType": "address",
          "name": "collectionAddress",
          "type": "address"
        },
        {
          "internalType": "uint256",
          "name": "tokenId",
          "type": "uint256"
        },
        {
          "internalType": "address",
          "name": "erc20Address",
          "type": "address"
        },
        {
          "internalType": "uint256",
          "name": "amount",
          "type": "uint256"
        }
      ],
      "name": "buy",
      "outputs": [],
      "stateMutability": "payable",
      "type": "function"
    },
    {
      "inputs": [
        {
          "internalType": "address",
          "name": "owner",
          "type": "address"
        },
        {
          "internalType": "address",
          "name": "collectionAddress",
          "type": "address"
        },
        {
          "internalType": "uint256",
          "name": "tokenId",
          "type": "uint256"
        }
      ],
      "name": "buyWithStableCoin",
      "outputs": [],
      "stateMutability": "payable",
      "type": "function"
    },
    {
      "inputs": [
        {
          "internalType": "address",
          "name": "owner",
          "type": "address"
        },
        {
          "internalType": "address",
          "name": "collectionAddress",
          "type": "address"
        },
        {
          "internalType": "uint256",
          "name": "tokenId",
          "type": "uint256"
        },
        {
          "internalType": "address",
          "name": "erc20Address",
          "type": "address"
        }
      ],
      "name": "cancelBid",
      "outputs": [],
      "stateMutability": "nonpayable",
      "type": "function"
    },
    {
      "inputs": [
        {
          "internalType": "address",
          "name": "owner",
          "type": "address"
        },
        {
          "internalType": "address",
          "name": "collectionAddress",
          "type": "address"
        },
        {
          "internalType": "uint256",
          "name": "tokenId",
          "type": "uint256"
        },
        {
          "internalType": "address",
          "name": "erc20Address",
          "type": "address"
        }
      ],
      "name": "cancelOffer",
      "outputs": [],
      "stateMutability": "nonpayable",
      "type": "function"
    },
    {
      "inputs": [
        {
          "internalType": "address",
          "name": "collectionAddress",
          "type": "address"
        },
        {
          "internalType": "uint256",
          "name": "tokenId",
          "type": "uint256"
        }
      ],
      "name": "cancelSell",
      "outputs": [],
      "stateMutability": "nonpayable",
      "type": "function"
    },
    {
      "inputs": [
        {
          "internalType": "uint256",
          "name": "tokenId",
          "type": "uint256"
        },
        {
          "internalType": "address",
          "name": "owner",
          "type": "address"
        }
      ],
      "name": "emitNFTBurnEvent",
      "outputs": [],
      "stateMutability": "nonpayable",
      "type": "function"
    },
    {
      "inputs": [
        {
          "internalType": "uint256",
          "name": "supply",
          "type": "uint256"
        },
        {
          "internalType": "address",
          "name": "owner",
          "type": "address"
        }
      ],
      "name": "emitNFTMintEvent",
      "outputs": [],
      "stateMutability": "nonpayable",
      "type": "function"
    },
    {
      "inputs": [
        {
          "internalType": "uint256",
          "name": "tokenId",
          "type": "uint256"
        },
        {
          "internalType": "address",
          "name": "from",
          "type": "address"
        },
        {
          "internalType": "address",
          "name": "to",
          "type": "address"
        }
      ],
      "name": "emitTransferEvent",
      "outputs": [],
      "stateMutability": "nonpayable",
      "type": "function"
    },
    {
      "inputs": [],
      "name": "erc20Price",
      "outputs": [
        {
          "internalType": "contract IERC20Price",
          "name": "",
          "type": "address"
        }
      ],
      "stateMutability": "view",
      "type": "function"
    },
    {
      "inputs": [
        {
          "internalType": "address",
          "name": "collectionAddress",
          "type": "address"
        },
        {
          "internalType": "uint256",
          "name": "tokenId",
          "type": "uint256"
        },
        {
          "internalType": "address",
          "name": "buyer",
          "type": "address"
        },
        {
          "internalType": "address",
          "name": "erc20Address",
          "type": "address"
        }
      ],
      "name": "exchange",
      "outputs": [],
      "stateMutability": "nonpayable",
      "type": "function"
    },
    {
      "inputs": [
        {
          "internalType": "address",
          "name": "collectionAddress",
          "type": "address"
        },
        {
          "internalType": "uint256",
          "name": "tokenId",
          "type": "uint256"
        },
        {
          "internalType": "uint256",
          "name": "price",
          "type": "uint256"
        },
        {
          "internalType": "bool",
          "name": "isStableCoin",
          "type": "bool"
        },
        {
          "internalType": "address[]",
          "name": "erc20ContractAddresses",
          "type": "address[]"
        },
        {
          "internalType": "enum OrderType",
          "name": "orderType",
          "type": "uint8"
        },
        {
          "internalType": "uint256",
          "name": "auctionEndTime",
          "type": "uint256"
        },
        {
          "internalType": "enum ListBaseCurrency",
          "name": "baseCurrency",
          "type": "uint8"
        }
      ],
      "name": "list",
      "outputs": [],
      "stateMutability": "nonpayable",
      "type": "function"
    },
    {
      "inputs": [
        {
          "internalType": "address",
          "name": "owner",
          "type": "address"
        },
        {
          "internalType": "address",
          "name": "collectionAddress",
          "type": "address"
        },
        {
          "internalType": "uint256",
          "name": "tokenId",
          "type": "uint256"
        },
        {
          "internalType": "address",
          "name": "erc20Address",
          "type": "address"
        },
        {
          "internalType": "uint256",
          "name": "offerPrice",
          "type": "uint256"
        }
      ],
      "name": "offer",
      "outputs": [],
      "stateMutability": "nonpayable",
      "type": "function"
    },
    {
      "inputs": [],
      "name": "owner",
      "outputs": [
        {
          "internalType": "address",
          "name": "",
          "type": "address"
        }
      ],
      "stateMutability": "view",
      "type": "function"
    },
    {
      "inputs": [],
      "name": "renounceOwnership",
      "outputs": [],
      "stateMutability": "nonpayable",
      "type": "function"
    },
    {
      "inputs": [],
      "name": "serviceFee",
      "outputs": [
        {
          "internalType": "uint256",
          "name": "",
          "type": "uint256"
        }
      ],
      "stateMutability": "view",
      "type": "function"
    },
    {
      "inputs": [
        {
          "internalType": "contract IERC20Price",
          "name": "_erc20Price",
          "type": "address"
        }
      ],
      "name": "setERC20Price",
      "outputs": [],
      "stateMutability": "nonpayable",
      "type": "function"
    },
    {
      "inputs": [
        {
          "internalType": "uint256",
          "name": "fee",
          "type": "uint256"
        }
      ],
      "name": "setServiceFee",
      "outputs": [],
      "stateMutability": "nonpayable",
      "type": "function"
    },
    {
      "inputs": [
        {
          "internalType": "uint256",
          "name": "_slippage",
          "type": "uint256"
        }
      ],
      "name": "setSlippage",
      "outputs": [],
      "stateMutability": "nonpayable",
      "type": "function"
    },
    {
      "inputs": [],
      "name": "slippage",
      "outputs": [
        {
          "internalType": "uint256",
          "name": "",
          "type": "uint256"
        }
      ],
      "stateMutability": "view",
      "type": "function"
    },
    {
      "inputs": [
        {
          "internalType": "address",
          "name": "newOwner",
          "type": "address"
        }
      ],
      "name": "transferOwnership",
      "outputs": [],
      "stateMutability": "nonpayable",
      "type": "function"
    },
    {
      "inputs": [
        {
          "internalType": "address",
          "name": "erc20Address",
          "type": "address"
        },
        {
          "internalType": "uint256",
          "name": "amount",
          "type": "uint256"
        }
      ],
      "name": "withdraw",
      "outputs": [],
      "stateMutability": "nonpayable",
      "type": "function"
    }
  ],
  "bytecode": "0x608060405261012c60035560646005553480156200001c57600080fd5b5062000028336200002e565b6200007e565b600080546001600160a01b038381166001600160a01b0319831681178455604051919092169283917f8be0079c531659141344cd1fd0a4f28419497f9722a3daafe3b4186f6b6457e09190a35050565b6150b8806200008e6000396000f3fe6080604052600436106101805760003560e01c80638e7ece16116100d6578063c66e20151161007f578063f2fde38b11610059578063f2fde38b146103f7578063f3fef3a314610417578063ff48c3951461043757600080fd5b8063c66e201514610397578063da35fe0e146103b7578063f0fa55a9146103d757600080fd5b8063aa6ecb55116100b0578063aa6ecb5514610344578063b69dba2014610364578063b9ce6b141461037757600080fd5b80638e7ece16146102e457806397e347e51461030457806398c986c91461032457600080fd5b80635ee52e6c11610138578063715018a611610112578063715018a61461029b5780638abdf5aa146102b05780638da5cb5b146102c657600080fd5b80635ee52e6c146102485780636316bfef1461026857806367767f4e1461028857600080fd5b80634adccde5116101695780634adccde5146101d05780635a0ad820146102085780635cdf76f81461022857600080fd5b8063284afb48146101855780633e032a3b146101a7575b600080fd5b34801561019157600080fd5b506101a56101a0366004614cdc565b610457565b005b3480156101b357600080fd5b506101bd60055481565b6040519081526020015b60405180910390f35b3480156101dc57600080fd5b506004546101f0906001600160a01b031681565b6040516001600160a01b0390911681526020016101c7565b34801561021457600080fd5b506101a5610223366004614e5c565b61098f565b34801561023457600080fd5b506101a5610243366004614e2c565b610a2e565b34801561025457600080fd5b506101a5610263366004614c93565b610b0e565b34801561027457600080fd5b506101a5610283366004614c4c565b611298565b6101a5610296366004614bc7565b61195f565b3480156102a757600080fd5b506101a5611fa7565b3480156102bc57600080fd5b506101bd60035481565b3480156102d257600080fd5b506000546001600160a01b03166101f0565b3480156102f057600080fd5b506101a56102ff366004614bc7565b61200d565b34801561031057600080fd5b506101a561031f366004614b75565b612778565b34801561033057600080fd5b506101a561033f366004614e5c565b612d34565b34801561035057600080fd5b506101a561035f366004614c21565b612dcb565b6101a5610372366004614b35565b613091565b34801561038357600080fd5b506101a5610392366004614e8b565b6134ed565b3480156103a357600080fd5b506101a56103b2366004614afd565b613590565b3480156103c357600080fd5b506101a56103d2366004614b75565b61360c565b3480156103e357600080fd5b506101a56103f2366004614e2c565b613c9d565b34801561040357600080fd5b506101a5610412366004614afd565b613cfc565b34801561042357600080fd5b506101a5610432366004614c21565b613dde565b34801561044357600080fd5b506101a5610452366004614bc7565b613fe2565b6040516331a9108f60e11b81526004810188905233906001600160a01b038a1690636352211e9060240160206040518083038186803b15801561049957600080fd5b505afa1580156104ad573d6000803e3d6000fd5b505050506040513d601f19601f820116820180604052508101906104d19190614b19565b6001600160a01b03161461052c5760405162461bcd60e51b815260206004820152601960248201527f4f776e6572206973206e6f7420746f6b656e206f776e65722e0000000000000060448201526064015b60405180910390fd5b60405163020604bf60e21b81526004810188905230906001600160a01b038a169063081812fc9060240160206040518083038186803b15801561056e57600080fd5b505afa158015610582573d6000803e3d6000fd5b505050506040513d601f19601f820116820180604052508101906105a69190614b19565b6001600160a01b0316146105fc5760405162461bcd60e51b815260206004820152601a60248201527f4e465420746f6b656e206973206e6f7420617070726f7665642e0000000000006044820152606401610523565b3360009081526001602090815260408083206001600160a01b038c16845282528083208a845290915281206006015460ff16600281111561064d57634e487b7160e01b600052602160045260246000fd5b1461069a5760405162461bcd60e51b815260206004820152601860248201527f546f656b6e20697320616c7265616479206c69737465642e00000000000000006044820152606401610523565b600086116106ea5760405162461bcd60e51b815260206004820152601160248201527f5072696365206973206e6f74207365742e0000000000000000000000000000006044820152606401610523565b600183600281111561070c57634e487b7160e01b600052602160045260246000fd5b148061074c5750600283600281111561073557634e487b7160e01b600052602160045260246000fd5b1480156107425750600082115b801561074c575084155b6107e45760405162461bcd60e51b815260206004820152604760248201527f41756374696f6e2074696d652073686f756c642062652067726561746572207460448201527f68616e2030206f7220737461626c6520636f696e206973206e6f74206163636560648201527f707461626c652e00000000000000000000000000000000000000000000000000608482015260a401610523565b3360008181526001602081815260408084206001600160a01b038e168086529083528185208d86528352932080546001600160a01b031990811690951781559182018054909416909217909255600282018990556003820188905560048201805460ff191688151517905585516108619260050191870190614973565b503360009081526001602081815260408084206001600160a01b038d16855282528084208b85529091529091206006018054859260ff19909116908360028111156108bc57634e487b7160e01b600052602160045260246000fd5b02179055503360009081526001602081815260408084206001600160a01b038d16855282528084208b85529091528220600881019290925560098201805460ff199081168317909155600a8301859055600b909201805484939192911690838181111561093957634e487b7160e01b600052602160045260246000fd5b02179055507fc087f8d0830d3ad23e7be34f4d32c4cfd55fe297012bf6f0648e90b457c6f0a333898989898989898960405161097d99989796959493929190614ef0565b60405180910390a15050505050505050565b333b6109dd5760405162461bcd60e51b815260206004820152601b60248201527f436f6c6c656374696f6e206973206e6f7420636f6e74726163742e00000000006044820152606401610523565b60408051338152602081018490526001600160a01b038316918101919091527f9121fa98f5dd3719a0341a3000577d2d045e06df9bf310db518a373505efab0c906060015b60405180910390a15050565b6000546001600160a01b03163314610a885760405162461bcd60e51b815260206004820181905260248201527f4f776e61626c653a2063616c6c6572206973206e6f7420746865206f776e65726044820152606401610523565b61271060035410610adb5760405162461bcd60e51b815260206004820152601f60248201527f53657276696365206665652063616e2774206265206f76657220313030252e006044820152606401610523565b600381905560405181907f43c5c10edabb4b17d66dede8c4729962e8b09e780e845436ebcef58c8d19c4f190600090a250565b6040516331a9108f60e11b81526004810185905233906001600160a01b03871690636352211e9060240160206040518083038186803b158015610b5057600080fd5b505afa158015610b64573d6000803e3d6000fd5b505050506040513d601f19601f82011682018060405250810190610b889190614b19565b6001600160a01b031614610bde5760405162461bcd60e51b815260206004820152601960248201527f4f776e6572206973206e6f7420746f6b656e206f776e65722e000000000000006044820152606401610523565b604051636eb1769f60e11b81526001600160a01b03848116600483015230602483015282919084169063dd62ed3e9060440160206040518083038186803b158015610c2857600080fd5b505afa158015610c3c573d6000803e3d6000fd5b505050506040513d601f19601f82011682018060405250810190610c609190614e44565b1015610cae5760405162461bcd60e51b815260206004820152601c60248201527f4f66666572207072696365206973206e6f7420617070726f7665642e000000006044820152606401610523565b60405163020604bf60e21b81526004810185905230906001600160a01b0387169063081812fc9060240160206040518083038186803b158015610cf057600080fd5b505afa158015610d04573d6000803e3d6000fd5b505050506040513d601f19601f82011682018060405250810190610d289190614b19565b6001600160a01b031614610d7e5760405162461bcd60e51b815260206004820152601a60248201527f4e465420746f6b656e206973206e6f7420617070726f7665642e0000000000006044820152606401610523565b60005b3360009081526002602090815260408083206001600160a01b038a1684528252808320888452909152902054811015611248573360008181526002602090815260408083206001600160a01b038b16845282528083208984529091529020805483908110610dff57634e487b7160e01b600052603260045260246000fd5b60009182526020909120600690910201546001600160a01b0316148015610e8e57503360009081526002602090815260408083206001600160a01b038a16808552908352818420898552909252909120805483908110610e6f57634e487b7160e01b600052603260045260246000fd5b60009182526020909120600160069092020101546001600160a01b0316145b8015610ef757503360009081526002602090815260408083206001600160a01b038a16845282528083208884529091529020805486919083908110610ee357634e487b7160e01b600052603260045260246000fd5b906000526020600020906006020160020154145b8015610f6f57503360009081526002602090815260408083206001600160a01b038a8116855290835281842089855290925290912080549186169183908110610f5057634e487b7160e01b600052603260045260246000fd5b60009182526020909120600360069092020101546001600160a01b0316145b8015610fe757503360009081526002602090815260408083206001600160a01b038a8116855290835281842089855290925290912080549185169183908110610fc857634e487b7160e01b600052603260045260246000fd5b60009182526020909120600460069092020101546001600160a01b0316145b1561123657600061100f612710611009600354866148f890919063ffffffff16565b9061490b565b9050600061101d8483614917565b604051632142170760e11b81523360048201526001600160a01b038881166024830152604482018a9052919250908916906342842e0e90606401600060405180830381600087803b15801561107157600080fd5b505af1158015611085573d6000803e3d6000fd5b50506040516323b872dd60e01b81526001600160a01b03898116600483015230602483015260448201869052881692506323b872dd9150606401602060405180830381600087803b1580156110d957600080fd5b505af11580156110ed573d6000803e3d6000fd5b505050506040513d601f19601f820116820180604052508101906111119190614e10565b506040516323b872dd60e01b81526001600160a01b038781166004830152336024830152604482018390528616906323b872dd90606401602060405180830381600087803b15801561116257600080fd5b505af1158015611176573d6000803e3d6000fd5b505050506040513d601f19601f8201168201806040525081019061119a9190614e10565b503360009081526002602090815260408083206001600160a01b038c16845282528083208a845290915281206111cf916149d8565b604080513381526001600160a01b038a811660208301528183018a905288811660608301528716608082015260a0810186905290517f95306167998c07bb1dc4e4df616cb15cf62654fb9e26f6ca0d1591e75fb7c3bb9181900360c00190a1505050611291565b8061124081615002565b915050610d81565b5060405162461bcd60e51b815260206004820152601260248201527f4e6f742065786973696e67206f666665722e00000000000000000000000000006044820152606401610523565b5050505050565b6040516331a9108f60e11b81526004810184905233906001600160a01b03861690636352211e9060240160206040518083038186803b1580156112da57600080fd5b505afa1580156112ee573d6000803e3d6000fd5b505050506040513d601f19601f820116820180604052508101906113129190614b19565b6001600160a01b0316146113685760405162461bcd60e51b815260206004820152601960248201527f4f776e6572206973206e6f7420746f6b656e206f776e65722e000000000000006044820152606401610523565b60405163020604bf60e21b81526004810184905230906001600160a01b0386169063081812fc9060240160206040518083038186803b1580156113aa57600080fd5b505afa1580156113be573d6000803e3d6000fd5b505050506040513d601f19601f820116820180604052508101906113e29190614b19565b6001600160a01b0316146114385760405162461bcd60e51b815260206004820152601a60248201527f4e465420746f6b656e206973206e6f7420617070726f7665642e0000000000006044820152606401610523565b60023360009081526001602090815260408083206001600160a01b0389168452825280832087845290915290206006015460ff16600281111561148b57634e487b7160e01b600052602160045260246000fd5b146114fe5760405162461bcd60e51b815260206004820152602a60248201527f4e465420746f6b656e206973206e6f74206c6973746564206f6e20617563746960448201527f6f6e206d61726b65742e000000000000000000000000000000000000000000006064820152608401610523565b60005b3360009081526001602090815260408083206001600160a01b03891684528252808320878452909152902060070154811015611910573360009081526001602090815260408083206001600160a01b0389811685529083528184208885529092529091206007018054918516918390811061158c57634e487b7160e01b600052603260045260246000fd5b60009182526020909120600390910201546001600160a01b031614801561162257503360009081526001602090815260408083206001600160a01b0389811685529083528184208885529092529091206007018054918416918390811061160357634e487b7160e01b600052603260045260246000fd5b60009182526020909120600160039092020101546001600160a01b0316145b156118fe576003543360009081526001602090815260408083206001600160a01b038a16845282528083208884529091528120600701805491926116a7926127109261100992918790811061168757634e487b7160e01b600052603260045260246000fd5b9060005260206000209060030201600201546148f890919063ffffffff16565b3360009081526001602090815260408083206001600160a01b038b16845282528083208984529091528120600701805492935090916117209184918690811061170057634e487b7160e01b600052603260045260246000fd5b90600052602060002090600302016002015461491790919063ffffffff16565b604051632142170760e11b81523360048201526001600160a01b03878116602483015260448201899052919250908816906342842e0e90606401600060405180830381600087803b15801561177457600080fd5b505af1158015611788573d6000803e3d6000fd5b50506040516323b872dd60e01b81526001600160a01b03888116600483015230602483015260448201869052871692506323b872dd9150606401602060405180830381600087803b1580156117dc57600080fd5b505af11580156117f0573d6000803e3d6000fd5b505050506040513d601f19601f820116820180604052508101906118149190614e10565b506040516323b872dd60e01b81526001600160a01b038681166004830152336024830152604482018390528516906323b872dd90606401602060405180830381600087803b15801561186557600080fd5b505af1158015611879573d6000803e3d6000fd5b505050506040513d601f19601f8201168201806040525081019061189d9190614e10565b50604080513381526001600160a01b03898116602083015281830189905287811660608301528616608082015290517f116d4151451235d39f4d3729807e18e6793b81496b8ae982fd2936535ba6f6129181900360a00190a1505050611959565b8061190881615002565b915050611501565b5060405162461bcd60e51b815260206004820152601760248201527f4e6f74206578697374696e6720626964206f726465722e0000000000000000006044820152606401610523565b50505050565b6001600160a01b03808616600081815260016020908152604080832089861684528252808320888452909152902054909116146119de5760405162461bcd60e51b815260206004820152601860248201527f4e465420746f6b656e206973206e6f74206c69737465642e00000000000000006044820152606401610523565b60016001600160a01b03808716600090815260016020908152604080832093891683529281528282208783529052206006015460ff166002811115611a3357634e487b7160e01b600052602160045260246000fd5b14611a8b5760405162461bcd60e51b815260206004820152602260248201527f546f6b656e206973206c6973746564206f6e2061756374696f6e206d61726b656044820152613a1760f11b6064820152608401610523565b6000805b6001600160a01b038088166000908152600160209081526040808320938a16835292815282822088835290522060050154811015611b52576001600160a01b0387811660009081526001602090815260408083208a851684528252808320898452909152902060050180549186169183908110611b1c57634e487b7160e01b600052603260045260246000fd5b6000918252602090912001546001600160a01b03161415611b405760019150611b52565b80611b4a81615002565b915050611a8f565b5080611ba05760405162461bcd60e51b815260206004820152601860248201527f546f6b656e206973206e6f742061636365707461626c652e00000000000000006044820152606401610523565b60048054604051630681320d60e51b81526001600160a01b0386811693820193909352600092611c3c92670de0b6b3a764000092611009928892169063d02641a0906024015b60206040518083038186803b158015611bfe57600080fd5b505afa158015611c12573d6000803e3d6000fd5b505050506040513d601f19601f82011682018060405250810190611c369190614e44565b906148f8565b6001600160a01b038881166000908152600160208181526040808420948c1684529381528383208a845290529190206003810154600b909101549293509160ff1681811115611c9b57634e487b7160e01b600052602160045260246000fd5b1415611d0257611cff670de0b6b3a764000061100983600460009054906101000a90046001600160a01b03166001600160a01b031663dde8a0046040518163ffffffff1660e01b815260040160206040518083038186803b158015611bfe57600080fd5b90505b81611d23612710611009600554612710611d1c9190614feb565b85906148f8565b1115611d715760405162461bcd60e51b815260206004820152601660248201527f5072696365206973206e6f7420696e2072616e67652e000000000000000000006044820152606401610523565b6000611d8e612710611009600354886148f890919063ffffffff16565b604051632142170760e11b81526001600160a01b038b81166004830152336024830152604482018a9052919250908916906342842e0e90606401600060405180830381600087803b158015611de257600080fd5b505af1158015611df6573d6000803e3d6000fd5b5050506001600160a01b03871690506323b872dd338b611e168986614917565b6040517fffffffff0000000000000000000000000000000000000000000000000000000060e086901b1681526001600160a01b0393841660048201529290911660248301526044820152606401602060405180830381600087803b158015611e7d57600080fd5b505af1158015611e91573d6000803e3d6000fd5b505050506040513d601f19601f82011682018060405250810190611eb59190614e10565b506040516323b872dd60e01b8152336004820152306024820152604481018290526001600160a01b038716906323b872dd90606401602060405180830381600087803b158015611f0457600080fd5b505af1158015611f18573d6000803e3d6000fd5b505050506040513d601f19601f82011682018060405250810190611f3c9190614e10565b50604080516001600160a01b038b811682528a811660208301528183018a90523360608301528816608082015260a0810187905290517fc477272b80bc87558d44e19228d58eac022a5b372f09ac52d14255b0237d14809181900360c00190a1505050505050505050565b6000546001600160a01b031633146120015760405162461bcd60e51b815260206004820181905260248201527f4f776e61626c653a2063616c6c6572206973206e6f7420746865206f776e65726044820152606401610523565b61200b6000614923565b565b6040516331a9108f60e11b8152600481018490526001600160a01b038087169190861690636352211e9060240160206040518083038186803b15801561205257600080fd5b505afa158015612066573d6000803e3d6000fd5b505050506040513d601f19601f8201168201806040525081019061208a9190614b19565b6001600160a01b0316146120e05760405162461bcd60e51b815260206004820152601960248201527f4f776e6572206973206e6f7420746f6b656e206f776e65722e000000000000006044820152606401610523565b604051636eb1769f60e11b815233600482015230602482015281906001600160a01b0384169063dd62ed3e9060440160206040518083038186803b15801561212757600080fd5b505afa15801561213b573d6000803e3d6000fd5b505050506040513d601f19601f8201168201806040525081019061215f9190614e44565b10156121ad5760405162461bcd60e51b815260206004820152601c60248201527f4f66666572207072696365206973206e6f7420617070726f7665642e000000006044820152606401610523565b6040516370a0823160e01b815233600482015281906001600160a01b038416906370a082319060240160206040518083038186803b1580156121ee57600080fd5b505afa158015612202573d6000803e3d6000fd5b505050506040513d601f19601f820116820180604052508101906122269190614e44565b10156122745760405162461bcd60e51b815260206004820152601560248201527f496e73756666696369656e742062616c616e63652e00000000000000000000006044820152606401610523565b6000805b6001600160a01b038088166000908152600260209081526040808320938a16835292815282822088835290522054811015612507576001600160a01b038088166000818152600260209081526040808320948b1683529381528382208983529052919091208054839081106122fd57634e487b7160e01b600052603260045260246000fd5b60009182526020909120600690910201546001600160a01b031614801561238e57506001600160a01b038781166000908152600260209081526040808320938a16808452938252808320898452909152902080548390811061236f57634e487b7160e01b600052603260045260246000fd5b60009182526020909120600160069092020101546001600160a01b0316145b80156123f957506001600160a01b038088166000908152600260209081526040808320938a1683529281528282208883529052208054869190839081106123e557634e487b7160e01b600052603260045260246000fd5b906000526020600020906006020160020154145b801561246f57506001600160a01b038781166000908152600260209081526040808320938a16835292815282822088835290522080543391908390811061245057634e487b7160e01b600052603260045260246000fd5b60009182526020909120600360069092020101546001600160a01b0316145b80156124e757506001600160a01b0387811660009081526002602090815260408083208a8516845282528083208984529091529020805491861691839081106124c857634e487b7160e01b600052603260045260246000fd5b60009182526020909120600460069092020101546001600160a01b0316145b156124f55760019150612507565b806124ff81615002565b915050612278565b5080156125565760405162461bcd60e51b815260206004820152601560248201527f4f666665722065786973747320616c72656164792e00000000000000000000006044820152606401610523565b60006040518060c00160405280886001600160a01b03168152602001876001600160a01b03168152602001868152602001336001600160a01b03168152602001856001600160a01b0316815260200184815250905060026000886001600160a01b03166001600160a01b031681526020019081526020016000206000876001600160a01b03166001600160a01b03168152602001908152602001600020600086815260200190815260200160002081908060018154018082558091505060019003906000526020600020906006020160009091909190915060008201518160000160006101000a8154816001600160a01b0302191690836001600160a01b0316021790555060208201518160010160006101000a8154816001600160a01b0302191690836001600160a01b031602179055506040820151816002015560608201518160030160006101000a8154816001600160a01b0302191690836001600160a01b0316021790555060808201518160040160006101000a8154816001600160a01b0302191690836001600160a01b0316021790555060a0820151816005015550507fdf39cabe862187db4d597f6bab9a18e7e59351d1af860366a5b34920967ebbe1878787338888604051612767969594939291906001600160a01b039687168152948616602086015260408501939093529084166060840152909216608082015260a081019190915260c00190565b60405180910390a150505050505050565b60016001600160a01b03808616600090815260016020908152604080832093881683529281528282208683529052206009015460ff1660048111156127cd57634e487b7160e01b600052602160045260246000fd5b1461281a5760405162461bcd60e51b815260206004820152601460248201527f546f6b656e206973206e6f74206c69737465642e0000000000000000000000006044820152606401610523565b6001600160a01b03808516600081815260016020908152604080832088861684528252808320878452909152902054909116146128995760405162461bcd60e51b815260206004820152601860248201527f4e465420746f6b656e206973206e6f74206c69737465642e00000000000000006044820152606401610523565b60026001600160a01b03808616600090815260016020908152604080832093881683529281528282208683529052206006015460ff1660028111156128ee57634e487b7160e01b600052602160045260246000fd5b1461293b5760405162461bcd60e51b815260206004820152601d60248201527f4e6f74206c6973746564206f6e2061756374696f6e206d61726b65742e0000006044820152606401610523565b6001600160a01b0380851660009081526001602090815260408083209387168352928152828220858352905220600a015442106129ba5760405162461bcd60e51b815260206004820152601660248201527f41756374696f6e20686173206265656e20656e646564000000000000000000006044820152606401610523565b6000805b6001600160a01b038087166000908152600160209081526040808320938916835292815282822087835290522060070154811015612c87576001600160a01b0386811660009081526001602090815260408083209389168352928152828220878352905220600701805433919083908110612a4957634e487b7160e01b600052603260045260246000fd5b60009182526020909120600390910201546001600160a01b0316148015612adf57506001600160a01b03868116600090815260016020908152604080832089851684528252808320888452909152902060070180549185169183908110612ac057634e487b7160e01b600052603260045260246000fd5b60009182526020909120600160039092020101546001600160a01b0316145b15612c75576001600160a01b038681166000908152600160208181526040808420948a168452938152838320888452905291902060070180549091612b2391614feb565b81548110612b4157634e487b7160e01b600052603260045260246000fd5b600091825260208083206001600160a01b03808b168552600183526040808620918b168652908352808520898652909252922060070180546003909202909201919083908110612ba157634e487b7160e01b600052603260045260246000fd5b60009182526020808320845460039093020180546001600160a01b03199081166001600160a01b03948516178255600180870154818401805490931690861617909155600295860154959091019490945589821683529283526040808320918916835290835280822087835290925220600701805480612c3157634e487b7160e01b600052603160045260246000fd5b60008281526020812060036000199093019283020180546001600160a01b031990811682556001828101805490921690915560029091019190915591559150612c87565b80612c7f81615002565b9150506129be565b5080612cd55760405162461bcd60e51b815260206004820152601160248201527f4e6f74206578697374696e67206269642e0000000000000000000000000000006044820152606401610523565b604080516001600160a01b03878116825286811660208301528183018690523360608301528416608082015290517f887adda9aa86e89d664046f1662c684cf8e3f0bcaa8a32a30017a39f821760989181900360a00190a15050505050565b333b612d825760405162461bcd60e51b815260206004820152601b60248201527f436f6c6c656374696f6e206973206e6f7420636f6e74726163742e00000000006044820152606401610523565b60408051338152602081018490526001600160a01b038316918101919091527f8fa5e487c702992a9909392bf21cdbaafd8a50a67f801ffc5085efec30b795cf90606001610a22565b6040516331a9108f60e11b81526004810182905233906001600160a01b03841690636352211e9060240160206040518083038186803b158015612e0d57600080fd5b505afa158015612e21573d6000803e3d6000fd5b505050506040513d601f19601f82011682018060405250810190612e459190614b19565b6001600160a01b031614612e9b5760405162461bcd60e51b815260206004820152601960248201527f4f776e6572206973206e6f7420746f6b656e206f776e65722e000000000000006044820152606401610523565b60013360009081526001602090815260408083206001600160a01b0387168452825280832085845290915290206006015460ff166002811115612eee57634e487b7160e01b600052602160045260246000fd5b1480612f4a575060023360009081526001602090815260408083206001600160a01b0387168452825280832085845290915290206006015460ff166002811115612f4857634e487b7160e01b600052602160045260246000fd5b145b612f965760405162461bcd60e51b815260206004820152601460248201527f546f656b6e206973206e6f74206c69737465642e0000000000000000000000006044820152606401610523565b3360009081526001602081815260408084206001600160a01b03871685528252808420858552909152822080546001600160a01b031990811682559181018054909216909155600281018290556003810182905560048101805460ff191690559061300460058301826149f9565b60068201805460ff1916905561301e600783016000614a17565b5060006008820181905560098201805460ff19908116909155600a830191909155600b90910180549091169055604080513381526001600160a01b03841660208201529081018290527f7669fd154dcec653f482e5e0a14a4ba09bbaf7e52c25adaa77d3785b3b1633d590606001610a22565b6001600160a01b03808416600081815260016020908152604080832087861684528252808320868452909152902054909116146131105760405162461bcd60e51b815260206004820152601860248201527f4e465420746f6b656e206973206e6f74206c69737465642e00000000000000006044820152606401610523565b6001600160a01b03808416600090815260016020908152604080832093861683529281528282208483529052206004015460ff166131905760405162461bcd60e51b815260206004820152601e60248201527f537461626c6520636f696e206973206e6f742061636365707461626c652e00006044820152606401610523565b60016001600160a01b03808516600090815260016020908152604080832093871683529281528282208583529052206006015460ff1660028111156131e557634e487b7160e01b600052602160045260246000fd5b1461323d5760405162461bcd60e51b815260206004820152602260248201527f546f6b656e206973206c6973746564206f6e2061756374696f6e206d61726b656044820152613a1760f11b6064820152608401610523565b600061329d670de0b6b3a764000061100934600460009054906101000a90046001600160a01b03166001600160a01b031663dde8a0046040518163ffffffff1660e01b815260040160206040518083038186803b158015611bfe57600080fd5b6001600160a01b038581166000908152600160208181526040808420948916845293815283832087845290529190206003810154600b909101549293509160ff16818111156132fc57634e487b7160e01b600052602160045260246000fd5b141561336357613360670de0b6b3a764000061100983600460009054906101000a90046001600160a01b03166001600160a01b031663dde8a0046040518163ffffffff1660e01b815260040160206040518083038186803b158015611bfe57600080fd5b90505b8161337d612710611009600554612710611d1c9190614feb565b11156133cb5760405162461bcd60e51b815260206004820152601660248201527f5072696365206973206e6f7420696e2072616e67652e000000000000000000006044820152606401610523565b60006133e8612710611009600354346148f890919063ffffffff16565b604051632142170760e11b81526001600160a01b03888116600483015233602483015260448201879052919250908616906342842e0e90606401600060405180830381600087803b15801561343c57600080fd5b505af1158015613450573d6000803e3d6000fd5b503392506108fc915061346590503484614917565b6040518115909202916000818181858888f1935050505015801561348d573d6000803e3d6000fd5b50604080516001600160a01b038089168252871660208201529081018590523360608201523460808201527f6f99b1160d8ce8bddeb08887342b27110c5bb4b75ea6e5f1a3c0b14eb581bb359060a00160405180910390a1505050505050565b333b61353b5760405162461bcd60e51b815260206004820152601b60248201527f436f6c6c656374696f6e206973206e6f7420636f6e74726163742e00000000006044820152606401610523565b60408051338152602081018590526001600160a01b03848116828401528316606082015290517fc038d74e85135a444efb3fabdb6369c4075a97062e47cf8370ea28ca706a32d79181900360800190a1505050565b6000546001600160a01b031633146135ea5760405162461bcd60e51b815260206004820181905260248201527f4f776e61626c653a2063616c6c6572206973206e6f7420746865206f776e65726044820152606401610523565b600480546001600160a01b0319166001600160a01b0392909216919091179055565b6040516331a9108f60e11b8152600481018390526001600160a01b038086169190851690636352211e9060240160206040518083038186803b15801561365157600080fd5b505afa158015613665573d6000803e3d6000fd5b505050506040513d601f19601f820116820180604052508101906136899190614b19565b6001600160a01b0316146136df5760405162461bcd60e51b815260206004820152601960248201527f4f776e6572206973206e6f7420746f6b656e206f776e65722e000000000000006044820152606401610523565b60005b6001600160a01b038086166000908152600260209081526040808320938816835292815282822086835290522054811015611248576001600160a01b038086166000818152600260209081526040808320948916835293815283822087835290529190912080548390811061376757634e487b7160e01b600052603260045260246000fd5b60009182526020909120600690910201546001600160a01b03161480156137f857506001600160a01b03858116600090815260026020908152604080832093881680845293825280832087845290915290208054839081106137d957634e487b7160e01b600052603260045260246000fd5b60009182526020909120600160069092020101546001600160a01b0316145b801561386357506001600160a01b038086166000908152600260209081526040808320938816835292815282822086835290522080548491908390811061384f57634e487b7160e01b600052603260045260246000fd5b906000526020600020906006020160020154145b80156138d957506001600160a01b03858116600090815260026020908152604080832093881683529281528282208683529052208054339190839081106138ba57634e487b7160e01b600052603260045260246000fd5b60009182526020909120600360069092020101546001600160a01b0316145b801561395157506001600160a01b0385811660009081526002602090815260408083208885168452825280832087845290915290208054918416918390811061393257634e487b7160e01b600052603260045260246000fd5b60009182526020909120600460069092020101546001600160a01b0316145b15613c8b57805b6001600160a01b03808716600090815260026020908152604080832093891683529281528282208783529052205461399290600190614feb565b811015613ae2576001600160a01b03808716600090815260026020908152604080832093891683529281528282208783529052206139d1826001614f94565b815481106139ef57634e487b7160e01b600052603260045260246000fd5b600091825260208083206001600160a01b03808b168552600283526040808620918b168652908352808520898652909252922080546006909202909201919083908110613a4c57634e487b7160e01b600052603260045260246000fd5b60009182526020909120825460069092020180546001600160a01b03199081166001600160a01b03938416178255600180850154908301805483169185169190911790556002808501549083015560038085015490830180548316918516919091179055600480850154908301805490921693169290921790915560059182015491015581613ada81615002565b925050613958565b506001600160a01b03858116600090815260026020908152604080832093881683529281528282208683529052208054613b1e90600190614feb565b81548110613b3c57634e487b7160e01b600052603260045260246000fd5b60009182526020808320600690920290910180546001600160a01b031990811682556001820180548216905560028083018590556003830180548316905560048301805490921690915560059091018390556001600160a01b038881168452908252604080842091881684529082528083208684529091529020805480613bd357634e487b7160e01b600052603160045260246000fd5b600082815260208082206006600019949094019384020180546001600160a01b031990811682556001820180548216905560028201849055600382018054821690556004820180549091169055600501919091559155604080516001600160a01b0388811682528781169382019390935290810185905233606082015290831660808201527ffa0c31227e143934f0edb1a101cfc13dd7aa4eca8671c50a795b61686422c7209060a00160405180910390a150611959565b80613c9581615002565b9150506136e2565b6000546001600160a01b03163314613cf75760405162461bcd60e51b815260206004820181905260248201527f4f776e61626c653a2063616c6c6572206973206e6f7420746865206f776e65726044820152606401610523565b600555565b6000546001600160a01b03163314613d565760405162461bcd60e51b815260206004820181905260248201527f4f776e61626c653a2063616c6c6572206973206e6f7420746865206f776e65726044820152606401610523565b6001600160a01b038116613dd25760405162461bcd60e51b815260206004820152602660248201527f4f776e61626c653a206e6577206f776e657220697320746865207a65726f206160448201527f64647265737300000000000000000000000000000000000000000000000000006064820152608401610523565b613ddb81614923565b50565b6000546001600160a01b03163314613e385760405162461bcd60e51b815260206004820181905260248201527f4f776e61626c653a2063616c6c6572206973206e6f7420746865206f776e65726044820152606401610523565b6040516370a0823160e01b815230600482015281906001600160a01b038416906370a082319060240160206040518083038186803b158015613e7957600080fd5b505afa158015613e8d573d6000803e3d6000fd5b505050506040513d601f19601f82011682018060405250810190613eb19190614e44565b1015613eff5760405162461bcd60e51b815260206004820152601460248201527f496e73756666696369656e742062616c616e63650000000000000000000000006044820152606401610523565b6040517fa9059cbb000000000000000000000000000000000000000000000000000000008152336004820152602481018290526001600160a01b0383169063a9059cbb90604401602060405180830381600087803b158015613f6057600080fd5b505af1158015613f74573d6000803e3d6000fd5b505050506040513d601f19601f82011682018060405250810190613f989190614e10565b50604080516001600160a01b03841681526020810183905233918101919091527f56c54ba9bd38d8fd62012e42c7ee564519b09763c426d331b3661b537ead19b290606001610a22565b60016001600160a01b03808716600090815260016020908152604080832093891683529281528282208783529052206009015460ff16600481111561403757634e487b7160e01b600052602160045260246000fd5b146140845760405162461bcd60e51b815260206004820152601460248201527f546f6b656e206973206e6f74206c69737465642e0000000000000000000000006044820152606401610523565b6001600160a01b03808616600081815260016020908152604080832089861684528252808320888452909152902054909116146141035760405162461bcd60e51b815260206004820152601860248201527f4e465420746f6b656e206973206e6f74206c69737465642e00000000000000006044820152606401610523565b604051636eb1769f60e11b815233600482015230602482015281906001600160a01b0384169063dd62ed3e9060440160206040518083038186803b15801561414a57600080fd5b505afa15801561415e573d6000803e3d6000fd5b505050506040513d601f19601f820116820180604052508101906141829190614e44565b10156141d05760405162461bcd60e51b815260206004820152601c60248201527f4f66666572207072696365206973206e6f7420617070726f7665642e000000006044820152606401610523565b6040516370a0823160e01b815233600482015281906001600160a01b038416906370a082319060240160206040518083038186803b15801561421157600080fd5b505afa158015614225573d6000803e3d6000fd5b505050506040513d601f19601f820116820180604052508101906142499190614e44565b10156142975760405162461bcd60e51b815260206004820152601560248201527f496e73756666696369656e742062616c616e63652e00000000000000000000006044820152606401610523565b60026001600160a01b03808716600090815260016020908152604080832093891683529281528282208783529052206006015460ff1660028111156142ec57634e487b7160e01b600052602160045260246000fd5b146143395760405162461bcd60e51b815260206004820152601d60248201527f4e6f74206c6973746564206f6e2061756374696f6e206d61726b65742e0000006044820152606401610523565b6001600160a01b0380861660009081526001602090815260408083209388168352928152828220868352905220600a015442106143b85760405162461bcd60e51b815260206004820152601660248201527f41756374696f6e20686173206265656e20656e646564000000000000000000006044820152606401610523565b6000805b6001600160a01b038088166000908152600160209081526040808320938a1683529281528282208883529052206005015481101561447f576001600160a01b0387811660009081526001602090815260408083208a85168452825280832089845290915290206005018054918616918390811061444957634e487b7160e01b600052603260045260246000fd5b6000918252602090912001546001600160a01b0316141561446d576001915061447f565b8061447781615002565b9150506143bc565b50806144cd5760405162461bcd60e51b815260206004820152601860248201527f546f6b656e206973206e6f742061636365707461626c652e00000000000000006044820152606401610523565b60005b6001600160a01b038088166000908152600160209081526040808320938a16835292815282822088835290522060070154811015614650576001600160a01b038781166000908152600160209081526040808320938a16835292815282822088835290522060070180543391908390811061455b57634e487b7160e01b600052603260045260246000fd5b60009182526020909120600390910201546001600160a01b03161480156145f157506001600160a01b0387811660009081526001602090815260408083208a8516845282528083208984529091529020600701805491861691839081106145d257634e487b7160e01b600052603260045260246000fd5b60009182526020909120600160039092020101546001600160a01b0316145b1561463e5760405162461bcd60e51b815260206004820152601360248201527f4578697374696e6720626964206f726465722e000000000000000000000000006044820152606401610523565b8061464881615002565b9150506144d0565b5060048054604051630681320d60e51b81526001600160a01b038681169382019390935260009261469b92670de0b6b3a764000092611009928892169063d02641a090602401611be6565b6001600160a01b038881166000908152600160208181526040808420948c1684529381528383208a845290529190206003810154600b909101549293509160ff16818111156146fa57634e487b7160e01b600052602160045260246000fd5b14156147615761475e670de0b6b3a764000061100983600460009054906101000a90046001600160a01b03166001600160a01b031663dde8a0046040518163ffffffff1660e01b815260040160206040518083038186803b158015611bfe57600080fd5b90505b8161477b612710611009600554612710611d1c9190614feb565b11156147ef5760405162461bcd60e51b815260206004820152602f60248201527f42696420616d6f756e742073686f756c6420626520677265617465722074686160448201527f6e206d696e696d756d20707269636500000000000000000000000000000000006064820152608401610523565b6001600160a01b0380891660009081526001602081815260408084208c8616855282528084208b855282528084208151606081018352338082528c88168286019081528285018d8152600790940180548089018255908952959097209151600390950290910180549488166001600160a01b031995861617815595519486018054959097169490931693909317909455905160029092019190915590517fe06f8bdd921b4ac4af281312500a584485c51aedbd3756b1a01ba5148f8fbe219161097d918b918b918b91908b908b906001600160a01b039687168152948616602086015260408501939093529084166060840152909216608082015260a081019190915260c00190565b60006149048284614fcc565b9392505050565b60006149048284614fac565b60006149048284614feb565b600080546001600160a01b038381166001600160a01b0319831681178455604051919092169283917f8be0079c531659141344cd1fd0a4f28419497f9722a3daafe3b4186f6b6457e09190a35050565b8280548282559060005260206000209081019282156149c8579160200282015b828111156149c857825182546001600160a01b0319166001600160a01b03909116178255602090920191600190910190614993565b506149d4929150614a38565b5090565b5080546000825560060290600052602060002090810190613ddb9190614a4d565b5080546000825590600052602060002090810190613ddb9190614a38565b5080546000825560030290600052602060002090810190613ddb9190614a9c565b5b808211156149d45760008155600101614a39565b5b808211156149d45780546001600160a01b0319908116825560018201805482169055600060028301819055600383018054831690556004830180549092169091556005820155600601614a4e565b5b808211156149d45780546001600160a01b03199081168255600182018054909116905560006002820155600301614a9d565b8035614ada8161505f565b919050565b803560028110614ada57600080fd5b803560038110614ada57600080fd5b600060208284031215614b0e578081fd5b81356149048161505f565b600060208284031215614b2a578081fd5b81516149048161505f565b600080600060608486031215614b49578182fd5b8335614b548161505f565b92506020840135614b648161505f565b929592945050506040919091013590565b60008060008060808587031215614b8a578081fd5b8435614b958161505f565b93506020850135614ba58161505f565b9250604085013591506060850135614bbc8161505f565b939692955090935050565b600080600080600060a08688031215614bde578081fd5b8535614be98161505f565b94506020860135614bf98161505f565b9350604086013592506060860135614c108161505f565b949793965091946080013592915050565b60008060408385031215614c33578182fd5b8235614c3e8161505f565b946020939093013593505050565b60008060008060808587031215614c61578384fd5b8435614c6c8161505f565b9350602085013592506040850135614c838161505f565b91506060850135614bbc8161505f565b600080600080600060a08688031215614caa578081fd5b8535614cb58161505f565b9450602086013593506040860135614ccc8161505f565b92506060860135614c108161505f565b600080600080600080600080610100898b031215614cf8578283fd5b8835614d038161505f565b975060208901359650604089013595506060890135614d2181615074565b9450608089013567ffffffffffffffff80821115614d3d578485fd5b818b0191508b601f830112614d50578485fd5b813581811115614d6257614d62615049565b8060051b604051601f19603f83011681018181108582111715614d8757614d87615049565b8060405250809350828152602081019350602085018f6020848801011115614dad578889fd5b8895505b83861015614dd757614dc281614acf565b85526001959095019460209485019401614db1565b508098505050505050614dec60a08a01614aee565b925060c08901359150614e0160e08a01614adf565b90509295985092959890939650565b600060208284031215614e21578081fd5b815161490481615074565b600060208284031215614e3d578081fd5b5035919050565b600060208284031215614e55578081fd5b5051919050565b60008060408385031215614e6e578182fd5b823591506020830135614e808161505f565b809150509250929050565b600080600060608486031215614e9f578081fd5b833592506020840135614eb18161505f565b91506040840135614ec18161505f565b809150509250925092565b60028110614edc57614edc615033565b9052565b60038110614edc57614edc615033565b60006101208083016001600160a01b03808e1685526020818e16818701528c60408701528b60608701528a151560808701528360a0870152829350895180845261014087019450818b019350855b81811015614f5c578451841686529482019493820193600101614f3e565b505050505080915050614f7260c0830186614ee0565b8360e0830152614f86610100830184614ecc565b9a9950505050505050505050565b60008219821115614fa757614fa761501d565b500190565b600082614fc757634e487b7160e01b81526012600452602481fd5b500490565b6000816000190483118215151615614fe657614fe661501d565b500290565b600082821015614ffd57614ffd61501d565b500390565b60006000198214156150165761501661501d565b5060010190565b634e487b7160e01b600052601160045260246000fd5b634e487b7160e01b600052602160045260246000fd5b634e487b7160e01b600052604160045260246000fd5b6001600160a01b0381168114613ddb57600080fd5b8015158114613ddb57600080fdfea26469706673582212205dd779ba91f15d916fa1b391ded69d803c0416396027670cc01356ee0433e66464736f6c63430008040033",
  "linkReferences": {},
  "deployedLinkReferences": {}
}