{
  "_format": "hh-sol-artifact-1",
  "contractName": "Exchange",
  "sourceName": "contracts/Exchange.sol",
  "abi": [
    {
      "inputs": [],
      "stateMutability": "nonpayable",
      "type": "constructor"
    },
    {
      "anonymous": false,
      "inputs": [
        {
          "indexed": false,
          "internalType": "address",
          "name": "owner",
          "type": "address"
        },
        {
          "indexed": false,
          "internalType": "address",
          "name": "collectionAddress",
          "type": "address"
        },
        {
          "indexed": false,
          "internalType": "uint256",
          "name": "tokenId",
          "type": "uint256"
        },
        {
          "indexed": false,
          "internalType": "address",
          "name": "buyer",
          "type": "address"
        },
        {
          "indexed": false,
          "internalType": "address",
          "name": "erc20Address",
          "type": "address"
        },
        {
          "indexed": false,
          "internalType": "uint256",
          "name": "offerAmount",
          "type": "uint256"
        }
      ],
      "name": "AcceptOffer",
      "type": "event"
    },
    {
      "anonymous": false,
      "inputs": [
        {
          "indexed": false,
          "internalType": "address",
          "name": "owner",
          "type": "address"
        },
        {
          "indexed": false,
          "internalType": "address",
          "name": "collectionAddress",
          "type": "address"
        },
        {
          "indexed": false,
          "internalType": "uint256",
          "name": "tokenId",
          "type": "uint256"
        },
        {
          "indexed": false,
          "internalType": "address",
          "name": "buyer",
          "type": "address"
        },
        {
          "indexed": false,
          "internalType": "address",
          "name": "erc20Address",
          "type": "address"
        }
      ],
      "name": "AuctionEnd",
      "type": "event"
    },
    {
      "anonymous": false,
      "inputs": [
        {
          "indexed": false,
          "internalType": "address",
          "name": "owner",
          "type": "address"
        },
        {
          "indexed": false,
          "internalType": "address",
          "name": "collectionAddress",
          "type": "address"
        },
        {
          "indexed": false,
          "internalType": "uint256",
          "name": "tokenId",
          "type": "uint256"
        },
        {
          "indexed": false,
          "internalType": "address",
          "name": "buyer",
          "type": "address"
        },
        {
          "indexed": false,
          "internalType": "address",
          "name": "erc20Address",
          "type": "address"
        },
        {
          "indexed": false,
          "internalType": "uint256",
          "name": "amount",
          "type": "uint256"
        }
      ],
      "name": "Bid",
      "type": "event"
    },
    {
      "anonymous": false,
      "inputs": [
        {
          "indexed": false,
          "internalType": "address",
          "name": "owner",
          "type": "address"
        },
        {
          "indexed": false,
          "internalType": "address",
          "name": "collectionAddress",
          "type": "address"
        },
        {
          "indexed": false,
          "internalType": "uint256",
          "name": "tokenId",
          "type": "uint256"
        },
        {
          "indexed": false,
          "internalType": "address",
          "name": "buyer",
          "type": "address"
        },
        {
          "indexed": false,
          "internalType": "address",
          "name": "erc20Address",
          "type": "address"
        },
        {
          "indexed": false,
          "internalType": "uint256",
          "name": "amount",
          "type": "uint256"
        }
      ],
      "name": "Buy",
      "type": "event"
    },
    {
      "anonymous": false,
      "inputs": [
        {
          "indexed": false,
          "internalType": "address",
          "name": "owner",
          "type": "address"
        },
        {
          "indexed": false,
          "internalType": "address",
          "name": "collectionAddress",
          "type": "address"
        },
        {
          "indexed": false,
          "internalType": "uint256",
          "name": "tokenId",
          "type": "uint256"
        },
        {
          "indexed": false,
          "internalType": "address",
          "name": "buyer",
          "type": "address"
        },
        {
          "indexed": false,
          "internalType": "uint256",
          "name": "amount",
          "type": "uint256"
        }
      ],
      "name": "BuyWithStableCoin",
      "type": "event"
    },
    {
      "anonymous": false,
      "inputs": [
        {
          "indexed": false,
          "internalType": "address",
          "name": "owner",
          "type": "address"
        },
        {
          "indexed": false,
          "internalType": "address",
          "name": "collectionAddress",
          "type": "address"
        },
        {
          "indexed": false,
          "internalType": "uint256",
          "name": "tokenId",
          "type": "uint256"
        },
        {
          "indexed": false,
          "internalType": "address",
          "name": "buyer",
          "type": "address"
        },
        {
          "indexed": false,
          "internalType": "address",
          "name": "erc20Address",
          "type": "address"
        }
      ],
      "name": "CancelBid",
      "type": "event"
    },
    {
      "anonymous": false,
      "inputs": [
        {
          "indexed": false,
          "internalType": "address",
          "name": "owner",
          "type": "address"
        },
        {
          "indexed": false,
          "internalType": "address",
          "name": "collectionAddress",
          "type": "address"
        },
        {
          "indexed": false,
          "internalType": "uint256",
          "name": "tokenId",
          "type": "uint256"
        },
        {
          "indexed": false,
          "internalType": "address",
          "name": "buyer",
          "type": "address"
        },
        {
          "indexed": false,
          "internalType": "address",
          "name": "erc20Address",
          "type": "address"
        }
      ],
      "name": "CancelOffer",
      "type": "event"
    },
    {
      "anonymous": false,
      "inputs": [
        {
          "indexed": false,
          "internalType": "address",
          "name": "owner",
          "type": "address"
        },
        {
          "indexed": false,
          "internalType": "address",
          "name": "collectionAddress",
          "type": "address"
        },
        {
          "indexed": false,
          "internalType": "uint256",
          "name": "tokenId",
          "type": "uint256"
        }
      ],
      "name": "CancelSell",
      "type": "event"
    },
    {
      "anonymous": false,
      "inputs": [
        {
          "indexed": false,
          "internalType": "address",
          "name": "owner",
          "type": "address"
        },
        {
          "indexed": false,
          "internalType": "address",
          "name": "collectionAddress",
          "type": "address"
        },
        {
          "indexed": false,
          "internalType": "uint256",
          "name": "tokenId",
          "type": "uint256"
        },
        {
          "indexed": false,
          "internalType": "uint256",
          "name": "price",
          "type": "uint256"
        },
        {
          "indexed": false,
          "internalType": "bool",
          "name": "isStableCoin",
          "type": "bool"
        },
        {
          "indexed": false,
          "internalType": "address[]",
          "name": "erc20ContractAddresses",
          "type": "address[]"
        },
        {
          "indexed": false,
          "internalType": "enum OrderType",
          "name": "orderType",
          "type": "uint8"
        },
        {
          "indexed": false,
          "internalType": "uint256",
          "name": "auctionEndTime",
          "type": "uint256"
        },
        {
          "indexed": false,
          "internalType": "enum ListBaseCurrency",
          "name": "baseCurrency",
          "type": "uint8"
        }
      ],
      "name": "List",
      "type": "event"
    },
    {
      "anonymous": false,
      "inputs": [
        {
          "indexed": false,
          "internalType": "address",
          "name": "collectionAddress",
          "type": "address"
        },
        {
          "indexed": false,
          "internalType": "uint256",
          "name": "tokenId",
          "type": "uint256"
        },
        {
          "indexed": false,
          "internalType": "address",
          "name": "owner",
          "type": "address"
        }
      ],
      "name": "NFTBurn",
      "type": "event"
    },
    {
      "anonymous": false,
      "inputs": [
        {
          "indexed": false,
          "internalType": "address",
          "name": "collectionAddress",
          "type": "address"
        },
        {
          "indexed": false,
          "internalType": "uint256",
          "name": "supply",
          "type": "uint256"
        },
        {
          "indexed": false,
          "internalType": "address",
          "name": "owner",
          "type": "address"
        }
      ],
      "name": "NFTMint",
      "type": "event"
    },
    {
      "anonymous": false,
      "inputs": [
        {
          "indexed": false,
          "internalType": "address",
          "name": "collectionAddress",
          "type": "address"
        },
        {
          "indexed": false,
          "internalType": "uint256",
          "name": "tokenId",
          "type": "uint256"
        },
        {
          "indexed": false,
          "internalType": "address",
          "name": "from",
          "type": "address"
        },
        {
          "indexed": false,
          "internalType": "address",
          "name": "to",
          "type": "address"
        }
      ],
      "name": "NFTTransfer",
      "type": "event"
    },
    {
      "anonymous": false,
      "inputs": [
        {
          "indexed": false,
          "internalType": "address",
          "name": "owner",
          "type": "address"
        },
        {
          "indexed": false,
          "internalType": "address",
          "name": "collectionAddress",
          "type": "address"
        },
        {
          "indexed": false,
          "internalType": "uint256",
          "name": "tokenId",
          "type": "uint256"
        },
        {
          "indexed": false,
          "internalType": "address",
          "name": "buyer",
          "type": "address"
        },
        {
          "indexed": false,
          "internalType": "address",
          "name": "erc20Address",
          "type": "address"
        },
        {
          "indexed": false,
          "internalType": "uint256",
          "name": "offerAmount",
          "type": "uint256"
        }
      ],
      "name": "Offer",
      "type": "event"
    },
    {
      "anonymous": false,
      "inputs": [
        {
          "indexed": true,
          "internalType": "address",
          "name": "previousOwner",
          "type": "address"
        },
        {
          "indexed": true,
          "internalType": "address",
          "name": "newOwner",
          "type": "address"
        }
      ],
      "name": "OwnershipTransferred",
      "type": "event"
    },
    {
      "anonymous": false,
      "inputs": [
        {
          "indexed": true,
          "internalType": "uint256",
          "name": "fee",
          "type": "uint256"
        }
      ],
      "name": "SetServiceFee",
      "type": "event"
    },
    {
      "anonymous": false,
      "inputs": [
        {
          "indexed": false,
          "internalType": "address",
          "name": "erc20Address",
          "type": "address"
        },
        {
          "indexed": false,
          "internalType": "uint256",
          "name": "amount",
          "type": "uint256"
        },
        {
          "indexed": false,
          "internalType": "address",
          "name": "to",
          "type": "address"
        }
      ],
      "name": "Withdraw",
      "type": "event"
    },
    {
      "inputs": [
        {
          "internalType": "address",
          "name": "collectionAddress",
          "type": "address"
        },
        {
          "internalType": "uint256",
          "name": "tokenId",
          "type": "uint256"
        },
        {
          "internalType": "address",
          "name": "buyer",
          "type": "address"
        },
        {
          "internalType": "address",
          "name": "erc20Address",
          "type": "address"
        },
        {
          "internalType": "uint256",
          "name": "offerPrice",
          "type": "uint256"
        }
      ],
      "name": "acceptOffer",
      "outputs": [],
      "stateMutability": "nonpayable",
      "type": "function"
    },
    {
      "inputs": [
        {
          "internalType": "address",
          "name": "owner",
          "type": "address"
        },
        {
          "internalType": "address",
          "name": "collectionAddress",
          "type": "address"
        },
        {
          "internalType": "uint256",
          "name": "tokenId",
          "type": "uint256"
        },
        {
          "internalType": "address",
          "name": "erc20Address",
          "type": "address"
        },
        {
          "internalType": "uint256",
          "name": "amount",
          "type": "uint256"
        }
      ],
      "name": "bid",
      "outputs": [],
      "stateMutability": "nonpayable",
      "type": "function"
    },
    {
      "inputs": [
        {
          "internalType": "address",
          "name": "owner",
          "type": "address"
        },
        {
          "internalType": "address",
          "name": "collectionAddress",
          "type": "address"
        },
        {
          "internalType": "uint256",
          "name": "tokenId",
          "type": "uint256"
        },
        {
          "internalType": "address",
          "name": "erc20Address",
          "type": "address"
        },
        {
          "internalType": "uint256",
          "name": "amount",
          "type": "uint256"
        }
      ],
      "name": "buy",
      "outputs": [],
      "stateMutability": "payable",
      "type": "function"
    },
    {
      "inputs": [
        {
          "internalType": "address",
          "name": "owner",
          "type": "address"
        },
        {
          "internalType": "address",
          "name": "collectionAddress",
          "type": "address"
        },
        {
          "internalType": "uint256",
          "name": "tokenId",
          "type": "uint256"
        }
      ],
      "name": "buyWithStableCoin",
      "outputs": [],
      "stateMutability": "payable",
      "type": "function"
    },
    {
      "inputs": [
        {
          "internalType": "address",
          "name": "owner",
          "type": "address"
        },
        {
          "internalType": "address",
          "name": "collectionAddress",
          "type": "address"
        },
        {
          "internalType": "uint256",
          "name": "tokenId",
          "type": "uint256"
        },
        {
          "internalType": "address",
          "name": "erc20Address",
          "type": "address"
        }
      ],
      "name": "cancelBid",
      "outputs": [],
      "stateMutability": "nonpayable",
      "type": "function"
    },
    {
      "inputs": [
        {
          "internalType": "address",
          "name": "owner",
          "type": "address"
        },
        {
          "internalType": "address",
          "name": "collectionAddress",
          "type": "address"
        },
        {
          "internalType": "uint256",
          "name": "tokenId",
          "type": "uint256"
        },
        {
          "internalType": "address",
          "name": "erc20Address",
          "type": "address"
        }
      ],
      "name": "cancelOffer",
      "outputs": [],
      "stateMutability": "nonpayable",
      "type": "function"
    },
    {
      "inputs": [
        {
          "internalType": "address",
          "name": "collectionAddress",
          "type": "address"
        },
        {
          "internalType": "uint256",
          "name": "tokenId",
          "type": "uint256"
        }
      ],
      "name": "cancelSell",
      "outputs": [],
      "stateMutability": "nonpayable",
      "type": "function"
    },
    {
      "inputs": [
        {
          "internalType": "uint256",
          "name": "tokenId",
          "type": "uint256"
        },
        {
          "internalType": "address",
          "name": "owner",
          "type": "address"
        }
      ],
      "name": "emitNFTBurnEvent",
      "outputs": [],
      "stateMutability": "nonpayable",
      "type": "function"
    },
    {
      "inputs": [
        {
          "internalType": "uint256",
          "name": "supply",
          "type": "uint256"
        },
        {
          "internalType": "address",
          "name": "owner",
          "type": "address"
        }
      ],
      "name": "emitNFTMintEvent",
      "outputs": [],
      "stateMutability": "nonpayable",
      "type": "function"
    },
    {
      "inputs": [
        {
          "internalType": "uint256",
          "name": "tokenId",
          "type": "uint256"
        },
        {
          "internalType": "address",
          "name": "from",
          "type": "address"
        },
        {
          "internalType": "address",
          "name": "to",
          "type": "address"
        }
      ],
      "name": "emitTransferEvent",
      "outputs": [],
      "stateMutability": "nonpayable",
      "type": "function"
    },
    {
      "inputs": [],
      "name": "erc20Price",
      "outputs": [
        {
          "internalType": "contract IERC20Price",
          "name": "",
          "type": "address"
        }
      ],
      "stateMutability": "view",
      "type": "function"
    },
    {
      "inputs": [
        {
          "internalType": "address",
          "name": "collectionAddress",
          "type": "address"
        },
        {
          "internalType": "uint256",
          "name": "tokenId",
          "type": "uint256"
        },
        {
          "internalType": "address",
          "name": "buyer",
          "type": "address"
        },
        {
          "internalType": "address",
          "name": "erc20Address",
          "type": "address"
        }
      ],
      "name": "exchange",
      "outputs": [],
      "stateMutability": "nonpayable",
      "type": "function"
    },
    {
      "inputs": [
        {
          "internalType": "address",
          "name": "collectionAddress",
          "type": "address"
        },
        {
          "internalType": "uint256",
          "name": "tokenId",
          "type": "uint256"
        },
        {
          "internalType": "uint256",
          "name": "price",
          "type": "uint256"
        },
        {
          "internalType": "bool",
          "name": "isStableCoin",
          "type": "bool"
        },
        {
          "internalType": "address[]",
          "name": "erc20ContractAddresses",
          "type": "address[]"
        },
        {
          "internalType": "enum OrderType",
          "name": "orderType",
          "type": "uint8"
        },
        {
          "internalType": "uint256",
          "name": "auctionEndTime",
          "type": "uint256"
        },
        {
          "internalType": "enum ListBaseCurrency",
          "name": "baseCurrency",
          "type": "uint8"
        }
      ],
      "name": "list",
      "outputs": [],
      "stateMutability": "nonpayable",
      "type": "function"
    },
    {
      "inputs": [
        {
          "internalType": "address",
          "name": "owner",
          "type": "address"
        },
        {
          "internalType": "address",
          "name": "collectionAddress",
          "type": "address"
        },
        {
          "internalType": "uint256",
          "name": "tokenId",
          "type": "uint256"
        },
        {
          "internalType": "address",
          "name": "erc20Address",
          "type": "address"
        },
        {
          "internalType": "uint256",
          "name": "offerPrice",
          "type": "uint256"
        }
      ],
      "name": "offer",
      "outputs": [],
      "stateMutability": "nonpayable",
      "type": "function"
    },
    {
      "inputs": [],
      "name": "owner",
      "outputs": [
        {
          "internalType": "address",
          "name": "",
          "type": "address"
        }
      ],
      "stateMutability": "view",
      "type": "function"
    },
    {
      "inputs": [],
      "name": "renounceOwnership",
      "outputs": [],
      "stateMutability": "nonpayable",
      "type": "function"
    },
    {
      "inputs": [],
      "name": "serviceFee",
      "outputs": [
        {
          "internalType": "uint256",
          "name": "",
          "type": "uint256"
        }
      ],
      "stateMutability": "view",
      "type": "function"
    },
    {
      "inputs": [
        {
          "internalType": "contract IERC20Price",
          "name": "_erc20Price",
          "type": "address"
        }
      ],
      "name": "setERC20Price",
      "outputs": [],
      "stateMutability": "nonpayable",
      "type": "function"
    },
    {
      "inputs": [
        {
          "internalType": "uint256",
          "name": "fee",
          "type": "uint256"
        }
      ],
      "name": "setServiceFee",
      "outputs": [],
      "stateMutability": "nonpayable",
      "type": "function"
    },
    {
      "inputs": [
        {
          "internalType": "uint256",
          "name": "_slippage",
          "type": "uint256"
        }
      ],
      "name": "setSlippage",
      "outputs": [],
      "stateMutability": "nonpayable",
      "type": "function"
    },
    {
      "inputs": [],
      "name": "slippage",
      "outputs": [
        {
          "internalType": "uint256",
          "name": "",
          "type": "uint256"
        }
      ],
      "stateMutability": "view",
      "type": "function"
    },
    {
      "inputs": [
        {
          "internalType": "address",
          "name": "newOwner",
          "type": "address"
        }
      ],
      "name": "transferOwnership",
      "outputs": [],
      "stateMutability": "nonpayable",
      "type": "function"
    },
    {
      "inputs": [
        {
          "internalType": "address",
          "name": "erc20Address",
          "type": "address"
        },
        {
          "internalType": "uint256",
          "name": "amount",
          "type": "uint256"
        }
      ],
      "name": "withdraw",
      "outputs": [],
      "stateMutability": "nonpayable",
      "type": "function"
    }
  ],
  "bytecode": "0x608060405261012c60035560646005553480156200001c57600080fd5b5062000028336200002e565b6200007e565b600080546001600160a01b038381166001600160a01b0319831681178455604051919092169283917f8be0079c531659141344cd1fd0a4f28419497f9722a3daafe3b4186f6b6457e09190a35050565b614e7a806200008e6000396000f3fe6080604052600436106101805760003560e01c80638e7ece16116100d6578063c66e20151161007f578063f2fde38b11610059578063f2fde38b146103f7578063f3fef3a314610417578063ff48c3951461043757600080fd5b8063c66e201514610397578063da35fe0e146103b7578063f0fa55a9146103d757600080fd5b8063aa6ecb55116100b0578063aa6ecb5514610344578063b69dba2014610364578063b9ce6b141461037757600080fd5b80638e7ece16146102e457806397e347e51461030457806398c986c91461032457600080fd5b80635ee52e6c11610138578063715018a611610112578063715018a61461029b5780638abdf5aa146102b05780638da5cb5b146102c657600080fd5b80635ee52e6c146102485780636316bfef1461026857806367767f4e1461028857600080fd5b80634adccde5116101695780634adccde5146101d05780635a0ad820146102085780635cdf76f81461022857600080fd5b8063284afb48146101855780633e032a3b146101a7575b600080fd5b34801561019157600080fd5b506101a56101a0366004614a9e565b610457565b005b3480156101b357600080fd5b506101bd60055481565b6040519081526020015b60405180910390f35b3480156101dc57600080fd5b506004546101f0906001600160a01b031681565b6040516001600160a01b0390911681526020016101c7565b34801561021457600080fd5b506101a5610223366004614c1e565b61095b565b34801561023457600080fd5b506101a5610243366004614bee565b6109fa565b34801561025457600080fd5b506101a5610263366004614a55565b610ada565b34801561027457600080fd5b506101a5610283366004614a0e565b611264565b6101a5610296366004614989565b61192b565b3480156102a757600080fd5b506101a5611ed3565b3480156102bc57600080fd5b506101bd60035481565b3480156102d257600080fd5b506000546001600160a01b03166101f0565b3480156102f057600080fd5b506101a56102ff366004614989565b611f39565b34801561031057600080fd5b506101a561031f366004614937565b6126a4565b34801561033057600080fd5b506101a561033f366004614c1e565b612c63565b34801561035057600080fd5b506101a561035f3660046149e3565b612cfa565b6101a56103723660046148f7565b612faf565b34801561038357600080fd5b506101a5610392366004614c4d565b613373565b3480156103a357600080fd5b506101a56103b23660046148bf565b613416565b3480156103c357600080fd5b506101a56103d2366004614937565b613492565b3480156103e357600080fd5b506101a56103f2366004614bee565b613b23565b34801561040357600080fd5b506101a56104123660046148bf565b613b82565b34801561042357600080fd5b506101a56104323660046149e3565b613c64565b34801561044357600080fd5b506101a5610452366004614989565b613e68565b6040516331a9108f60e11b81526004810188905233906001600160a01b038a1690636352211e9060240160206040518083038186803b15801561049957600080fd5b505afa1580156104ad573d6000803e3d6000fd5b505050506040513d601f19601f820116820180604052508101906104d191906148db565b6001600160a01b03161461052c5760405162461bcd60e51b815260206004820152601960248201527f4f776e6572206973206e6f7420746f6b656e206f776e65722e0000000000000060448201526064015b60405180910390fd5b60405163020604bf60e21b81526004810188905230906001600160a01b038a169063081812fc9060240160206040518083038186803b15801561056e57600080fd5b505afa158015610582573d6000803e3d6000fd5b505050506040513d601f19601f820116820180604052508101906105a691906148db565b6001600160a01b0316146105fc5760405162461bcd60e51b815260206004820152601a60248201527f4e465420746f6b656e206973206e6f7420617070726f7665642e0000000000006044820152606401610523565b3360009081526001602090815260408083206001600160a01b038c16845282528083208a845290915281206006015460ff16600281111561064d57634e487b7160e01b600052602160045260246000fd5b1461069a5760405162461bcd60e51b815260206004820152601860248201527f546f656b6e20697320616c7265616479206c69737465642e00000000000000006044820152606401610523565b600086116106ea5760405162461bcd60e51b815260206004820152601160248201527f5072696365206973206e6f74207365742e0000000000000000000000000000006044820152606401610523565b600183600281111561070c57634e487b7160e01b600052602160045260246000fd5b148061074c5750600283600281111561073557634e487b7160e01b600052602160045260246000fd5b1480156107425750600082115b801561074c575084155b6107e45760405162461bcd60e51b815260206004820152604760248201527f41756374696f6e2074696d652073686f756c642062652067726561746572207460448201527f68616e2030206f7220737461626c6520636f696e206973206e6f74206163636560648201527f707461626c652e00000000000000000000000000000000000000000000000000608482015260a401610523565b3360008181526001602081815260408084206001600160a01b038e168086529083528185208d86528352932080546001600160a01b031990811690951781559182018054909416909217909255600282018990556003820188905560048201805460ff191688151517905585516108619260050191870190614735565b503360009081526001602081815260408084206001600160a01b038d16855282528084208b85529091529091206006018054859260ff19909116908360028111156108bc57634e487b7160e01b600052602160045260246000fd5b02179055503360008181526001602081815260408084206001600160a01b038e16855282528084208c8552909152808320600881019390935560098301805460ff1916909217909155600a909101849055517fc087f8d0830d3ad23e7be34f4d32c4cfd55fe297012bf6f0648e90b457c6f0a391610949918b908b908b908b908b908b908b908b90614cb2565b60405180910390a15050505050505050565b333b6109a95760405162461bcd60e51b815260206004820152601b60248201527f436f6c6c656374696f6e206973206e6f7420636f6e74726163742e00000000006044820152606401610523565b60408051338152602081018490526001600160a01b038316918101919091527f9121fa98f5dd3719a0341a3000577d2d045e06df9bf310db518a373505efab0c906060015b60405180910390a15050565b6000546001600160a01b03163314610a545760405162461bcd60e51b815260206004820181905260248201527f4f776e61626c653a2063616c6c6572206973206e6f7420746865206f776e65726044820152606401610523565b61271060035410610aa75760405162461bcd60e51b815260206004820152601f60248201527f53657276696365206665652063616e2774206265206f76657220313030252e006044820152606401610523565b600381905560405181907f43c5c10edabb4b17d66dede8c4729962e8b09e780e845436ebcef58c8d19c4f190600090a250565b6040516331a9108f60e11b81526004810185905233906001600160a01b03871690636352211e9060240160206040518083038186803b158015610b1c57600080fd5b505afa158015610b30573d6000803e3d6000fd5b505050506040513d601f19601f82011682018060405250810190610b5491906148db565b6001600160a01b031614610baa5760405162461bcd60e51b815260206004820152601960248201527f4f776e6572206973206e6f7420746f6b656e206f776e65722e000000000000006044820152606401610523565b604051636eb1769f60e11b81526001600160a01b03848116600483015230602483015282919084169063dd62ed3e9060440160206040518083038186803b158015610bf457600080fd5b505afa158015610c08573d6000803e3d6000fd5b505050506040513d601f19601f82011682018060405250810190610c2c9190614c06565b1015610c7a5760405162461bcd60e51b815260206004820152601c60248201527f4f66666572207072696365206973206e6f7420617070726f7665642e000000006044820152606401610523565b60405163020604bf60e21b81526004810185905230906001600160a01b0387169063081812fc9060240160206040518083038186803b158015610cbc57600080fd5b505afa158015610cd0573d6000803e3d6000fd5b505050506040513d601f19601f82011682018060405250810190610cf491906148db565b6001600160a01b031614610d4a5760405162461bcd60e51b815260206004820152601a60248201527f4e465420746f6b656e206973206e6f7420617070726f7665642e0000000000006044820152606401610523565b60005b3360009081526002602090815260408083206001600160a01b038a1684528252808320888452909152902054811015611214573360008181526002602090815260408083206001600160a01b038b16845282528083208984529091529020805483908110610dcb57634e487b7160e01b600052603260045260246000fd5b60009182526020909120600690910201546001600160a01b0316148015610e5a57503360009081526002602090815260408083206001600160a01b038a16808552908352818420898552909252909120805483908110610e3b57634e487b7160e01b600052603260045260246000fd5b60009182526020909120600160069092020101546001600160a01b0316145b8015610ec357503360009081526002602090815260408083206001600160a01b038a16845282528083208884529091529020805486919083908110610eaf57634e487b7160e01b600052603260045260246000fd5b906000526020600020906006020160020154145b8015610f3b57503360009081526002602090815260408083206001600160a01b038a8116855290835281842089855290925290912080549186169183908110610f1c57634e487b7160e01b600052603260045260246000fd5b60009182526020909120600360069092020101546001600160a01b0316145b8015610fb357503360009081526002602090815260408083206001600160a01b038a8116855290835281842089855290925290912080549185169183908110610f9457634e487b7160e01b600052603260045260246000fd5b60009182526020909120600460069092020101546001600160a01b0316145b15611202576000610fdb612710610fd5600354866146ba90919063ffffffff16565b906146cd565b90506000610fe984836146d9565b604051632142170760e11b81523360048201526001600160a01b038881166024830152604482018a9052919250908916906342842e0e90606401600060405180830381600087803b15801561103d57600080fd5b505af1158015611051573d6000803e3d6000fd5b50506040516323b872dd60e01b81526001600160a01b03898116600483015230602483015260448201869052881692506323b872dd9150606401602060405180830381600087803b1580156110a557600080fd5b505af11580156110b9573d6000803e3d6000fd5b505050506040513d601f19601f820116820180604052508101906110dd9190614bd2565b506040516323b872dd60e01b81526001600160a01b038781166004830152336024830152604482018390528616906323b872dd90606401602060405180830381600087803b15801561112e57600080fd5b505af1158015611142573d6000803e3d6000fd5b505050506040513d601f19601f820116820180604052508101906111669190614bd2565b503360009081526002602090815260408083206001600160a01b038c16845282528083208a8452909152812061119b9161479a565b604080513381526001600160a01b038a811660208301528183018a905288811660608301528716608082015260a0810186905290517f95306167998c07bb1dc4e4df616cb15cf62654fb9e26f6ca0d1591e75fb7c3bb9181900360c00190a150505061125d565b8061120c81614dc4565b915050610d4d565b5060405162461bcd60e51b815260206004820152601260248201527f4e6f742065786973696e67206f666665722e00000000000000000000000000006044820152606401610523565b5050505050565b6040516331a9108f60e11b81526004810184905233906001600160a01b03861690636352211e9060240160206040518083038186803b1580156112a657600080fd5b505afa1580156112ba573d6000803e3d6000fd5b505050506040513d601f19601f820116820180604052508101906112de91906148db565b6001600160a01b0316146113345760405162461bcd60e51b815260206004820152601960248201527f4f776e6572206973206e6f7420746f6b656e206f776e65722e000000000000006044820152606401610523565b60405163020604bf60e21b81526004810184905230906001600160a01b0386169063081812fc9060240160206040518083038186803b15801561137657600080fd5b505afa15801561138a573d6000803e3d6000fd5b505050506040513d601f19601f820116820180604052508101906113ae91906148db565b6001600160a01b0316146114045760405162461bcd60e51b815260206004820152601a60248201527f4e465420746f6b656e206973206e6f7420617070726f7665642e0000000000006044820152606401610523565b60023360009081526001602090815260408083206001600160a01b0389168452825280832087845290915290206006015460ff16600281111561145757634e487b7160e01b600052602160045260246000fd5b146114ca5760405162461bcd60e51b815260206004820152602a60248201527f4e465420746f6b656e206973206e6f74206c6973746564206f6e20617563746960448201527f6f6e206d61726b65742e000000000000000000000000000000000000000000006064820152608401610523565b60005b3360009081526001602090815260408083206001600160a01b038916845282528083208784529091529020600701548110156118dc573360009081526001602090815260408083206001600160a01b0389811685529083528184208885529092529091206007018054918516918390811061155857634e487b7160e01b600052603260045260246000fd5b60009182526020909120600390910201546001600160a01b03161480156115ee57503360009081526001602090815260408083206001600160a01b038981168552908352818420888552909252909120600701805491841691839081106115cf57634e487b7160e01b600052603260045260246000fd5b60009182526020909120600160039092020101546001600160a01b0316145b156118ca576003543360009081526001602090815260408083206001600160a01b038a16845282528083208884529091528120600701805491926116739261271092610fd592918790811061165357634e487b7160e01b600052603260045260246000fd5b9060005260206000209060030201600201546146ba90919063ffffffff16565b3360009081526001602090815260408083206001600160a01b038b16845282528083208984529091528120600701805492935090916116ec918491869081106116cc57634e487b7160e01b600052603260045260246000fd5b9060005260206000209060030201600201546146d990919063ffffffff16565b604051632142170760e11b81523360048201526001600160a01b03878116602483015260448201899052919250908816906342842e0e90606401600060405180830381600087803b15801561174057600080fd5b505af1158015611754573d6000803e3d6000fd5b50506040516323b872dd60e01b81526001600160a01b03888116600483015230602483015260448201869052871692506323b872dd9150606401602060405180830381600087803b1580156117a857600080fd5b505af11580156117bc573d6000803e3d6000fd5b505050506040513d601f19601f820116820180604052508101906117e09190614bd2565b506040516323b872dd60e01b81526001600160a01b038681166004830152336024830152604482018390528516906323b872dd90606401602060405180830381600087803b15801561183157600080fd5b505af1158015611845573d6000803e3d6000fd5b505050506040513d601f19601f820116820180604052508101906118699190614bd2565b50604080513381526001600160a01b03898116602083015281830189905287811660608301528616608082015290517f116d4151451235d39f4d3729807e18e6793b81496b8ae982fd2936535ba6f6129181900360a00190a1505050611925565b806118d481614dc4565b9150506114cd565b5060405162461bcd60e51b815260206004820152601760248201527f4e6f74206578697374696e6720626964206f726465722e0000000000000000006044820152606401610523565b50505050565b6001600160a01b03808616600081815260016020908152604080832089861684528252808320888452909152902054909116146119aa5760405162461bcd60e51b815260206004820152601860248201527f4e465420746f6b656e206973206e6f74206c69737465642e00000000000000006044820152606401610523565b60016001600160a01b03808716600090815260016020908152604080832093891683529281528282208783529052206006015460ff1660028111156119ff57634e487b7160e01b600052602160045260246000fd5b14611a575760405162461bcd60e51b815260206004820152602260248201527f546f6b656e206973206c6973746564206f6e2061756374696f6e206d61726b656044820152613a1760f11b6064820152608401610523565b6000805b6001600160a01b038088166000908152600160209081526040808320938a16835292815282822088835290522060050154811015611b1e576001600160a01b0387811660009081526001602090815260408083208a851684528252808320898452909152902060050180549186169183908110611ae857634e487b7160e01b600052603260045260246000fd5b6000918252602090912001546001600160a01b03161415611b0c5760019150611b1e565b80611b1681614dc4565b915050611a5b565b5080611b6c5760405162461bcd60e51b815260206004820152601860248201527f546f6b656e206973206e6f742061636365707461626c652e00000000000000006044820152606401610523565b60048054604051630681320d60e51b81526001600160a01b0386811693820193909352600092611c0892670de0b6b3a764000092610fd5928892169063d02641a0906024015b60206040518083038186803b158015611bca57600080fd5b505afa158015611bde573d6000803e3d6000fd5b505050506040513d601f19601f82011682018060405250810190611c029190614c06565b906146ba565b905080611c5b612710610fd5600554612710611c249190614dad565b6001600160a01b03808d166000908152600160209081526040808320938f1683529281528282208d835290522060030154906146ba565b1115611ca95760405162461bcd60e51b815260206004820152601660248201527f5072696365206973206e6f7420696e2072616e67652e000000000000000000006044820152606401610523565b6000611cc6612710610fd5600354876146ba90919063ffffffff16565b604051632142170760e11b81526001600160a01b038a8116600483015233602483015260448201899052919250908816906342842e0e90606401600060405180830381600087803b158015611d1a57600080fd5b505af1158015611d2e573d6000803e3d6000fd5b5050506001600160a01b03861690506323b872dd338a611d4e88866146d9565b6040517fffffffff0000000000000000000000000000000000000000000000000000000060e086901b1681526001600160a01b0393841660048201529290911660248301526044820152606401602060405180830381600087803b158015611db557600080fd5b505af1158015611dc9573d6000803e3d6000fd5b505050506040513d601f19601f82011682018060405250810190611ded9190614bd2565b506040516323b872dd60e01b8152336004820152306024820152604481018290526001600160a01b038616906323b872dd90606401602060405180830381600087803b158015611e3c57600080fd5b505af1158015611e50573d6000803e3d6000fd5b505050506040513d601f19601f82011682018060405250810190611e749190614bd2565b50604080516001600160a01b03808b168252808a166020830152918101889052336060820152908616608082015260a081018590527fc477272b80bc87558d44e19228d58eac022a5b372f09ac52d14255b0237d14809060c001610949565b6000546001600160a01b03163314611f2d5760405162461bcd60e51b815260206004820181905260248201527f4f776e61626c653a2063616c6c6572206973206e6f7420746865206f776e65726044820152606401610523565b611f3760006146e5565b565b6040516331a9108f60e11b8152600481018490526001600160a01b038087169190861690636352211e9060240160206040518083038186803b158015611f7e57600080fd5b505afa158015611f92573d6000803e3d6000fd5b505050506040513d601f19601f82011682018060405250810190611fb691906148db565b6001600160a01b03161461200c5760405162461bcd60e51b815260206004820152601960248201527f4f776e6572206973206e6f7420746f6b656e206f776e65722e000000000000006044820152606401610523565b604051636eb1769f60e11b815233600482015230602482015281906001600160a01b0384169063dd62ed3e9060440160206040518083038186803b15801561205357600080fd5b505afa158015612067573d6000803e3d6000fd5b505050506040513d601f19601f8201168201806040525081019061208b9190614c06565b10156120d95760405162461bcd60e51b815260206004820152601c60248201527f4f66666572207072696365206973206e6f7420617070726f7665642e000000006044820152606401610523565b6040516370a0823160e01b815233600482015281906001600160a01b038416906370a082319060240160206040518083038186803b15801561211a57600080fd5b505afa15801561212e573d6000803e3d6000fd5b505050506040513d601f19601f820116820180604052508101906121529190614c06565b10156121a05760405162461bcd60e51b815260206004820152601560248201527f496e73756666696369656e742062616c616e63652e00000000000000000000006044820152606401610523565b6000805b6001600160a01b038088166000908152600260209081526040808320938a16835292815282822088835290522054811015612433576001600160a01b038088166000818152600260209081526040808320948b16835293815283822089835290529190912080548390811061222957634e487b7160e01b600052603260045260246000fd5b60009182526020909120600690910201546001600160a01b03161480156122ba57506001600160a01b038781166000908152600260209081526040808320938a16808452938252808320898452909152902080548390811061229b57634e487b7160e01b600052603260045260246000fd5b60009182526020909120600160069092020101546001600160a01b0316145b801561232557506001600160a01b038088166000908152600260209081526040808320938a16835292815282822088835290522080548691908390811061231157634e487b7160e01b600052603260045260246000fd5b906000526020600020906006020160020154145b801561239b57506001600160a01b038781166000908152600260209081526040808320938a16835292815282822088835290522080543391908390811061237c57634e487b7160e01b600052603260045260246000fd5b60009182526020909120600360069092020101546001600160a01b0316145b801561241357506001600160a01b0387811660009081526002602090815260408083208a8516845282528083208984529091529020805491861691839081106123f457634e487b7160e01b600052603260045260246000fd5b60009182526020909120600460069092020101546001600160a01b0316145b156124215760019150612433565b8061242b81614dc4565b9150506121a4565b5080156124825760405162461bcd60e51b815260206004820152601560248201527f4f666665722065786973747320616c72656164792e00000000000000000000006044820152606401610523565b60006040518060c00160405280886001600160a01b03168152602001876001600160a01b03168152602001868152602001336001600160a01b03168152602001856001600160a01b0316815260200184815250905060026000886001600160a01b03166001600160a01b031681526020019081526020016000206000876001600160a01b03166001600160a01b03168152602001908152602001600020600086815260200190815260200160002081908060018154018082558091505060019003906000526020600020906006020160009091909190915060008201518160000160006101000a8154816001600160a01b0302191690836001600160a01b0316021790555060208201518160010160006101000a8154816001600160a01b0302191690836001600160a01b031602179055506040820151816002015560608201518160030160006101000a8154816001600160a01b0302191690836001600160a01b0316021790555060808201518160040160006101000a8154816001600160a01b0302191690836001600160a01b0316021790555060a0820151816005015550507fdf39cabe862187db4d597f6bab9a18e7e59351d1af860366a5b34920967ebbe1878787338888604051612693969594939291906001600160a01b039687168152948616602086015260408501939093529084166060840152909216608082015260a081019190915260c00190565b60405180910390a150505050505050565b60016001600160a01b03808616600090815260016020908152604080832093881683529281528282208683529052206009015460ff1660048111156126f957634e487b7160e01b600052602160045260246000fd5b146127465760405162461bcd60e51b815260206004820152601460248201527f546f6b656e206973206e6f74206c69737465642e0000000000000000000000006044820152606401610523565b6001600160a01b03808516600081815260016020908152604080832088861684528252808320878452909152902054909116146127c55760405162461bcd60e51b815260206004820152601860248201527f4e465420746f6b656e206973206e6f74206c69737465642e00000000000000006044820152606401610523565b60026001600160a01b03808616600090815260016020908152604080832093881683529281528282208683529052206006015460ff16600281111561281a57634e487b7160e01b600052602160045260246000fd5b146128675760405162461bcd60e51b815260206004820152601d60248201527f4e6f74206c6973746564206f6e2061756374696f6e206d61726b65742e0000006044820152606401610523565b6001600160a01b0380851660009081526001602090815260408083209387168352928152828220858352905220600a015442106128e65760405162461bcd60e51b815260206004820152601660248201527f41756374696f6e20686173206265656e20656e646564000000000000000000006044820152606401610523565b6000805b6001600160a01b038087166000908152600160209081526040808320938916835292815282822087835290522060070154811015612bb3576001600160a01b038681166000908152600160209081526040808320938916835292815282822087835290522060070180543391908390811061297557634e487b7160e01b600052603260045260246000fd5b60009182526020909120600390910201546001600160a01b0316148015612a0b57506001600160a01b038681166000908152600160209081526040808320898516845282528083208884529091529020600701805491851691839081106129ec57634e487b7160e01b600052603260045260246000fd5b60009182526020909120600160039092020101546001600160a01b0316145b15612ba1576001600160a01b038681166000908152600160208181526040808420948a168452938152838320888452905291902060070180549091612a4f91614dad565b81548110612a6d57634e487b7160e01b600052603260045260246000fd5b600091825260208083206001600160a01b03808b168552600183526040808620918b168652908352808520898652909252922060070180546003909202909201919083908110612acd57634e487b7160e01b600052603260045260246000fd5b60009182526020808320845460039093020180546001600160a01b03199081166001600160a01b03948516178255600180870154818401805490931690861617909155600295860154959091019490945589821683529283526040808320918916835290835280822087835290925220600701805480612b5d57634e487b7160e01b600052603160045260246000fd5b60008281526020812060036000199093019283020180546001600160a01b031990811682556001828101805490921690915560029091019190915591559150612bb3565b80612bab81614dc4565b9150506128ea565b5080612c015760405162461bcd60e51b815260206004820152601160248201527f4e6f74206578697374696e67206269642e0000000000000000000000000000006044820152606401610523565b604080516001600160a01b038088168252808716602083015291810185905233606082015290831660808201527f887adda9aa86e89d664046f1662c684cf8e3f0bcaa8a32a30017a39f821760989060a0015b60405180910390a15050505050565b333b612cb15760405162461bcd60e51b815260206004820152601b60248201527f436f6c6c656374696f6e206973206e6f7420636f6e74726163742e00000000006044820152606401610523565b60408051338152602081018490526001600160a01b038316918101919091527f8fa5e487c702992a9909392bf21cdbaafd8a50a67f801ffc5085efec30b795cf906060016109ee565b6040516331a9108f60e11b81526004810182905233906001600160a01b03841690636352211e9060240160206040518083038186803b158015612d3c57600080fd5b505afa158015612d50573d6000803e3d6000fd5b505050506040513d601f19601f82011682018060405250810190612d7491906148db565b6001600160a01b031614612dca5760405162461bcd60e51b815260206004820152601960248201527f4f776e6572206973206e6f7420746f6b656e206f776e65722e000000000000006044820152606401610523565b60013360009081526001602090815260408083206001600160a01b0387168452825280832085845290915290206006015460ff166002811115612e1d57634e487b7160e01b600052602160045260246000fd5b1480612e79575060023360009081526001602090815260408083206001600160a01b0387168452825280832085845290915290206006015460ff166002811115612e7757634e487b7160e01b600052602160045260246000fd5b145b612ec55760405162461bcd60e51b815260206004820152601460248201527f546f656b6e206973206e6f74206c69737465642e0000000000000000000000006044820152606401610523565b3360009081526001602081815260408084206001600160a01b03871685528252808420858552909152822080546001600160a01b031990811682559181018054909216909155600281018290556003810182905560048101805460ff1916905590612f3360058301826147bb565b60068201805460ff19169055612f4d6007830160006147d9565b5060006008820181905560098201805460ff19169055600a90910155604080513381526001600160a01b03841660208201529081018290527f7669fd154dcec653f482e5e0a14a4ba09bbaf7e52c25adaa77d3785b3b1633d5906060016109ee565b6001600160a01b038084166000818152600160209081526040808320878616845282528083208684529091529020549091161461302e5760405162461bcd60e51b815260206004820152601860248201527f4e465420746f6b656e206973206e6f74206c69737465642e00000000000000006044820152606401610523565b6001600160a01b03808416600090815260016020908152604080832093861683529281528282208483529052206004015460ff166130ae5760405162461bcd60e51b815260206004820152601e60248201527f537461626c6520636f696e206973206e6f742061636365707461626c652e00006044820152606401610523565b60016001600160a01b03808516600090815260016020908152604080832093871683529281528282208583529052206006015460ff16600281111561310357634e487b7160e01b600052602160045260246000fd5b1461315b5760405162461bcd60e51b815260206004820152602260248201527f546f6b656e206973206c6973746564206f6e2061756374696f6e206d61726b656044820152613a1760f11b6064820152608401610523565b60006131bb670de0b6b3a7640000610fd534600460009054906101000a90046001600160a01b03166001600160a01b031663dde8a0046040518163ffffffff1660e01b815260040160206040518083038186803b158015611bca57600080fd5b90508061320e612710610fd56005546127106131d79190614dad565b6001600160a01b03808a166000908152600160209081526040808320938c1683529281528282208a835290522060030154906146ba565b111561325c5760405162461bcd60e51b815260206004820152601660248201527f5072696365206973206e6f7420696e2072616e67652e000000000000000000006044820152606401610523565b6000613279612710610fd5600354346146ba90919063ffffffff16565b604051632142170760e11b81526001600160a01b03878116600483015233602483015260448201869052919250908516906342842e0e90606401600060405180830381600087803b1580156132cd57600080fd5b505af11580156132e1573d6000803e3d6000fd5b503392506108fc91506132f6905034846146d9565b6040518115909202916000818181858888f1935050505015801561331e573d6000803e3d6000fd5b50604080516001600160a01b038088168252861660208201529081018490523360608201523460808201527f6f99b1160d8ce8bddeb08887342b27110c5bb4b75ea6e5f1a3c0b14eb581bb359060a001612c54565b333b6133c15760405162461bcd60e51b815260206004820152601b60248201527f436f6c6c656374696f6e206973206e6f7420636f6e74726163742e00000000006044820152606401610523565b60408051338152602081018590526001600160a01b03848116828401528316606082015290517fc038d74e85135a444efb3fabdb6369c4075a97062e47cf8370ea28ca706a32d79181900360800190a1505050565b6000546001600160a01b031633146134705760405162461bcd60e51b815260206004820181905260248201527f4f776e61626c653a2063616c6c6572206973206e6f7420746865206f776e65726044820152606401610523565b600480546001600160a01b0319166001600160a01b0392909216919091179055565b6040516331a9108f60e11b8152600481018390526001600160a01b038086169190851690636352211e9060240160206040518083038186803b1580156134d757600080fd5b505afa1580156134eb573d6000803e3d6000fd5b505050506040513d601f19601f8201168201806040525081019061350f91906148db565b6001600160a01b0316146135655760405162461bcd60e51b815260206004820152601960248201527f4f776e6572206973206e6f7420746f6b656e206f776e65722e000000000000006044820152606401610523565b60005b6001600160a01b038086166000908152600260209081526040808320938816835292815282822086835290522054811015611214576001600160a01b03808616600081815260026020908152604080832094891683529381528382208783529052919091208054839081106135ed57634e487b7160e01b600052603260045260246000fd5b60009182526020909120600690910201546001600160a01b031614801561367e57506001600160a01b038581166000908152600260209081526040808320938816808452938252808320878452909152902080548390811061365f57634e487b7160e01b600052603260045260246000fd5b60009182526020909120600160069092020101546001600160a01b0316145b80156136e957506001600160a01b03808616600090815260026020908152604080832093881683529281528282208683529052208054849190839081106136d557634e487b7160e01b600052603260045260246000fd5b906000526020600020906006020160020154145b801561375f57506001600160a01b038581166000908152600260209081526040808320938816835292815282822086835290522080543391908390811061374057634e487b7160e01b600052603260045260246000fd5b60009182526020909120600360069092020101546001600160a01b0316145b80156137d757506001600160a01b038581166000908152600260209081526040808320888516845282528083208784529091529020805491841691839081106137b857634e487b7160e01b600052603260045260246000fd5b60009182526020909120600460069092020101546001600160a01b0316145b15613b1157805b6001600160a01b03808716600090815260026020908152604080832093891683529281528282208783529052205461381890600190614dad565b811015613968576001600160a01b0380871660009081526002602090815260408083209389168352928152828220878352905220613857826001614d56565b8154811061387557634e487b7160e01b600052603260045260246000fd5b600091825260208083206001600160a01b03808b168552600283526040808620918b1686529083528085208986529092529220805460069092029092019190839081106138d257634e487b7160e01b600052603260045260246000fd5b60009182526020909120825460069092020180546001600160a01b03199081166001600160a01b0393841617825560018085015490830180548316918516919091179055600280850154908301556003808501549083018054831691851691909117905560048085015490830180549092169316929092179091556005918201549101558161396081614dc4565b9250506137de565b506001600160a01b038581166000908152600260209081526040808320938816835292815282822086835290522080546139a490600190614dad565b815481106139c257634e487b7160e01b600052603260045260246000fd5b60009182526020808320600690920290910180546001600160a01b031990811682556001820180548216905560028083018590556003830180548316905560048301805490921690915560059091018390556001600160a01b038881168452908252604080842091881684529082528083208684529091529020805480613a5957634e487b7160e01b600052603160045260246000fd5b600082815260208082206006600019949094019384020180546001600160a01b031990811682556001820180548216905560028201849055600382018054821690556004820180549091169055600501919091559155604080516001600160a01b0388811682528781169382019390935290810185905233606082015290831660808201527ffa0c31227e143934f0edb1a101cfc13dd7aa4eca8671c50a795b61686422c7209060a00160405180910390a150611925565b80613b1b81614dc4565b915050613568565b6000546001600160a01b03163314613b7d5760405162461bcd60e51b815260206004820181905260248201527f4f776e61626c653a2063616c6c6572206973206e6f7420746865206f776e65726044820152606401610523565b600555565b6000546001600160a01b03163314613bdc5760405162461bcd60e51b815260206004820181905260248201527f4f776e61626c653a2063616c6c6572206973206e6f7420746865206f776e65726044820152606401610523565b6001600160a01b038116613c585760405162461bcd60e51b815260206004820152602660248201527f4f776e61626c653a206e6577206f776e657220697320746865207a65726f206160448201527f64647265737300000000000000000000000000000000000000000000000000006064820152608401610523565b613c61816146e5565b50565b6000546001600160a01b03163314613cbe5760405162461bcd60e51b815260206004820181905260248201527f4f776e61626c653a2063616c6c6572206973206e6f7420746865206f776e65726044820152606401610523565b6040516370a0823160e01b815230600482015281906001600160a01b038416906370a082319060240160206040518083038186803b158015613cff57600080fd5b505afa158015613d13573d6000803e3d6000fd5b505050506040513d601f19601f82011682018060405250810190613d379190614c06565b1015613d855760405162461bcd60e51b815260206004820152601460248201527f496e73756666696369656e742062616c616e63650000000000000000000000006044820152606401610523565b6040517fa9059cbb000000000000000000000000000000000000000000000000000000008152336004820152602481018290526001600160a01b0383169063a9059cbb90604401602060405180830381600087803b158015613de657600080fd5b505af1158015613dfa573d6000803e3d6000fd5b505050506040513d601f19601f82011682018060405250810190613e1e9190614bd2565b50604080516001600160a01b03841681526020810183905233918101919091527f56c54ba9bd38d8fd62012e42c7ee564519b09763c426d331b3661b537ead19b2906060016109ee565b60016001600160a01b03808716600090815260016020908152604080832093891683529281528282208783529052206009015460ff166004811115613ebd57634e487b7160e01b600052602160045260246000fd5b14613f0a5760405162461bcd60e51b815260206004820152601460248201527f546f6b656e206973206e6f74206c69737465642e0000000000000000000000006044820152606401610523565b6001600160a01b0380861660008181526001602090815260408083208986168452825280832088845290915290205490911614613f895760405162461bcd60e51b815260206004820152601860248201527f4e465420746f6b656e206973206e6f74206c69737465642e00000000000000006044820152606401610523565b604051636eb1769f60e11b815233600482015230602482015281906001600160a01b0384169063dd62ed3e9060440160206040518083038186803b158015613fd057600080fd5b505afa158015613fe4573d6000803e3d6000fd5b505050506040513d601f19601f820116820180604052508101906140089190614c06565b10156140565760405162461bcd60e51b815260206004820152601c60248201527f4f66666572207072696365206973206e6f7420617070726f7665642e000000006044820152606401610523565b6040516370a0823160e01b815233600482015281906001600160a01b038416906370a082319060240160206040518083038186803b15801561409757600080fd5b505afa1580156140ab573d6000803e3d6000fd5b505050506040513d601f19601f820116820180604052508101906140cf9190614c06565b101561411d5760405162461bcd60e51b815260206004820152601560248201527f496e73756666696369656e742062616c616e63652e00000000000000000000006044820152606401610523565b60026001600160a01b03808716600090815260016020908152604080832093891683529281528282208783529052206006015460ff16600281111561417257634e487b7160e01b600052602160045260246000fd5b146141bf5760405162461bcd60e51b815260206004820152601d60248201527f4e6f74206c6973746564206f6e2061756374696f6e206d61726b65742e0000006044820152606401610523565b6001600160a01b0380861660009081526001602090815260408083209388168352928152828220868352905220600a0154421061423e5760405162461bcd60e51b815260206004820152601660248201527f41756374696f6e20686173206265656e20656e646564000000000000000000006044820152606401610523565b6000805b6001600160a01b038088166000908152600160209081526040808320938a16835292815282822088835290522060050154811015614305576001600160a01b0387811660009081526001602090815260408083208a8516845282528083208984529091529020600501805491861691839081106142cf57634e487b7160e01b600052603260045260246000fd5b6000918252602090912001546001600160a01b031614156142f35760019150614305565b806142fd81614dc4565b915050614242565b50806143535760405162461bcd60e51b815260206004820152601860248201527f546f6b656e206973206e6f742061636365707461626c652e00000000000000006044820152606401610523565b60005b6001600160a01b038088166000908152600160209081526040808320938a168352928152828220888352905220600701548110156144d6576001600160a01b038781166000908152600160209081526040808320938a1683529281528282208883529052206007018054339190839081106143e157634e487b7160e01b600052603260045260246000fd5b60009182526020909120600390910201546001600160a01b031614801561447757506001600160a01b0387811660009081526001602090815260408083208a85168452825280832089845290915290206007018054918616918390811061445857634e487b7160e01b600052603260045260246000fd5b60009182526020909120600160039092020101546001600160a01b0316145b156144c45760405162461bcd60e51b815260206004820152601360248201527f4578697374696e6720626964206f726465722e000000000000000000000000006044820152606401610523565b806144ce81614dc4565b915050614356565b5060048054604051630681320d60e51b81526001600160a01b038681169382019390935260009261452192670de0b6b3a764000092610fd5928892169063d02641a090602401611bb2565b90508061453d612710610fd5600554612710611c249190614dad565b11156145b15760405162461bcd60e51b815260206004820152602f60248201527f42696420616d6f756e742073686f756c6420626520677265617465722074686160448201527f6e206d696e696d756d20707269636500000000000000000000000000000000006064820152608401610523565b6001600160a01b0380881660009081526001602081815260408084208b8616855282528084208a855282528084208151606081018352338082528b88168286019081528285018c8152600790940180548089018255908952959097209151600390950290910180549488166001600160a01b031995861617815595519486018054959097169490931693909317909455905160029092019190915590517fe06f8bdd921b4ac4af281312500a584485c51aedbd3756b1a01ba5148f8fbe2191612693918a918a918a91908a908a906001600160a01b039687168152948616602086015260408501939093529084166060840152909216608082015260a081019190915260c00190565b60006146c68284614d8e565b9392505050565b60006146c68284614d6e565b60006146c68284614dad565b600080546001600160a01b038381166001600160a01b0319831681178455604051919092169283917f8be0079c531659141344cd1fd0a4f28419497f9722a3daafe3b4186f6b6457e09190a35050565b82805482825590600052602060002090810192821561478a579160200282015b8281111561478a57825182546001600160a01b0319166001600160a01b03909116178255602090920191600190910190614755565b506147969291506147fa565b5090565b5080546000825560060290600052602060002090810190613c61919061480f565b5080546000825590600052602060002090810190613c6191906147fa565b5080546000825560030290600052602060002090810190613c61919061485e565b5b8082111561479657600081556001016147fb565b5b808211156147965780546001600160a01b0319908116825560018201805482169055600060028301819055600383018054831690556004830180549092169091556005820155600601614810565b5b808211156147965780546001600160a01b0319908116825560018201805490911690556000600282015560030161485f565b803561489c81614e21565b919050565b80356002811061489c57600080fd5b80356003811061489c57600080fd5b6000602082840312156148d0578081fd5b81356146c681614e21565b6000602082840312156148ec578081fd5b81516146c681614e21565b60008060006060848603121561490b578182fd5b833561491681614e21565b9250602084013561492681614e21565b929592945050506040919091013590565b6000806000806080858703121561494c578081fd5b843561495781614e21565b9350602085013561496781614e21565b925060408501359150606085013561497e81614e21565b939692955090935050565b600080600080600060a086880312156149a0578081fd5b85356149ab81614e21565b945060208601356149bb81614e21565b93506040860135925060608601356149d281614e21565b949793965091946080013592915050565b600080604083850312156149f5578182fd5b8235614a0081614e21565b946020939093013593505050565b60008060008060808587031215614a23578384fd5b8435614a2e81614e21565b9350602085013592506040850135614a4581614e21565b9150606085013561497e81614e21565b600080600080600060a08688031215614a6c578081fd5b8535614a7781614e21565b9450602086013593506040860135614a8e81614e21565b925060608601356149d281614e21565b600080600080600080600080610100898b031215614aba578283fd5b8835614ac581614e21565b975060208901359650604089013595506060890135614ae381614e36565b9450608089013567ffffffffffffffff80821115614aff578485fd5b818b0191508b601f830112614b12578485fd5b813581811115614b2457614b24614e0b565b8060051b604051601f19603f83011681018181108582111715614b4957614b49614e0b565b8060405250809350828152602081019350602085018f6020848801011115614b6f578889fd5b8895505b83861015614b9957614b8481614891565b85526001959095019460209485019401614b73565b508098505050505050614bae60a08a016148b0565b925060c08901359150614bc360e08a016148a1565b90509295985092959890939650565b600060208284031215614be3578081fd5b81516146c681614e36565b600060208284031215614bff578081fd5b5035919050565b600060208284031215614c17578081fd5b5051919050565b60008060408385031215614c30578182fd5b823591506020830135614c4281614e21565b809150509250929050565b600080600060608486031215614c61578081fd5b833592506020840135614c7381614e21565b91506040840135614c8381614e21565b809150509250925092565b60028110614c9e57614c9e614df5565b9052565b60038110614c9e57614c9e614df5565b60006101208083016001600160a01b03808e1685526020818e16818701528c60408701528b60608701528a151560808701528360a0870152829350895180845261014087019450818b019350855b81811015614d1e578451841686529482019493820193600101614d00565b505050505080915050614d3460c0830186614ca2565b8360e0830152614d48610100830184614c8e565b9a9950505050505050505050565b60008219821115614d6957614d69614ddf565b500190565b600082614d8957634e487b7160e01b81526012600452602481fd5b500490565b6000816000190483118215151615614da857614da8614ddf565b500290565b600082821015614dbf57614dbf614ddf565b500390565b6000600019821415614dd857614dd8614ddf565b5060010190565b634e487b7160e01b600052601160045260246000fd5b634e487b7160e01b600052602160045260246000fd5b634e487b7160e01b600052604160045260246000fd5b6001600160a01b0381168114613c6157600080fd5b8015158114613c6157600080fdfea2646970667358221220ce6043a2ee294c51b144d9bc35559f1244163d2997dfb44dea85631f79ead72064736f6c63430008040033",
  "linkReferences": {},
  "deployedLinkReferences": {}
}