{
  "_format": "hh-sol-artifact-1",
  "contractName": "NFT",
  "sourceName": "contracts/mockup/NFT.sol",
  "abi": [
    {
      "inputs": [
        {
          "internalType": "string",
          "name": "name_",
          "type": "string"
        },
        {
          "internalType": "string",
          "name": "symbol_",
          "type": "string"
        },
        {
          "internalType": "address",
          "name": "exchange_",
          "type": "address"
        },
        {
          "internalType": "string",
          "name": "metadata_",
          "type": "string"
        }
      ],
      "stateMutability": "nonpayable",
      "type": "constructor"
    },
    {
      "anonymous": false,
      "inputs": [
        {
          "indexed": true,
          "internalType": "address",
          "name": "owner",
          "type": "address"
        },
        {
          "indexed": true,
          "internalType": "address",
          "name": "approved",
          "type": "address"
        },
        {
          "indexed": true,
          "internalType": "uint256",
          "name": "tokenId",
          "type": "uint256"
        }
      ],
      "name": "Approval",
      "type": "event"
    },
    {
      "anonymous": false,
      "inputs": [
        {
          "indexed": true,
          "internalType": "address",
          "name": "owner",
          "type": "address"
        },
        {
          "indexed": true,
          "internalType": "address",
          "name": "operator",
          "type": "address"
        },
        {
          "indexed": false,
          "internalType": "bool",
          "name": "approved",
          "type": "bool"
        }
      ],
      "name": "ApprovalForAll",
      "type": "event"
    },
    {
      "anonymous": false,
      "inputs": [
        {
          "indexed": true,
          "internalType": "address",
          "name": "previousOwner",
          "type": "address"
        },
        {
          "indexed": true,
          "internalType": "address",
          "name": "newOwner",
          "type": "address"
        }
      ],
      "name": "OwnershipTransferred",
      "type": "event"
    },
    {
      "anonymous": false,
      "inputs": [
        {
          "indexed": true,
          "internalType": "address",
          "name": "from",
          "type": "address"
        },
        {
          "indexed": true,
          "internalType": "address",
          "name": "to",
          "type": "address"
        },
        {
          "indexed": true,
          "internalType": "uint256",
          "name": "tokenId",
          "type": "uint256"
        }
      ],
      "name": "Transfer",
      "type": "event"
    },
    {
      "inputs": [
        {
          "internalType": "address",
          "name": "to",
          "type": "address"
        },
        {
          "internalType": "uint256",
          "name": "tokenId",
          "type": "uint256"
        }
      ],
      "name": "approve",
      "outputs": [],
      "stateMutability": "nonpayable",
      "type": "function"
    },
    {
      "inputs": [
        {
          "internalType": "address",
          "name": "owner",
          "type": "address"
        }
      ],
      "name": "balanceOf",
      "outputs": [
        {
          "internalType": "uint256",
          "name": "",
          "type": "uint256"
        }
      ],
      "stateMutability": "view",
      "type": "function"
    },
    {
      "inputs": [],
      "name": "exchange",
      "outputs": [
        {
          "internalType": "address",
          "name": "",
          "type": "address"
        }
      ],
      "stateMutability": "view",
      "type": "function"
    },
    {
      "inputs": [
        {
          "internalType": "uint256",
          "name": "tokenId",
          "type": "uint256"
        }
      ],
      "name": "getApproved",
      "outputs": [
        {
          "internalType": "address",
          "name": "",
          "type": "address"
        }
      ],
      "stateMutability": "view",
      "type": "function"
    },
    {
      "inputs": [
        {
          "internalType": "address",
          "name": "owner",
          "type": "address"
        },
        {
          "internalType": "address",
          "name": "operator",
          "type": "address"
        }
      ],
      "name": "isApprovedForAll",
      "outputs": [
        {
          "internalType": "bool",
          "name": "",
          "type": "bool"
        }
      ],
      "stateMutability": "view",
      "type": "function"
    },
    {
      "inputs": [],
      "name": "metadata",
      "outputs": [
        {
          "internalType": "string",
          "name": "",
          "type": "string"
        }
      ],
      "stateMutability": "view",
      "type": "function"
    },
    {
      "inputs": [
        {
          "internalType": "uint256",
          "name": "totalSupply",
          "type": "uint256"
        }
      ],
      "name": "mintAll",
      "outputs": [],
      "stateMutability": "nonpayable",
      "type": "function"
    },
    {
      "inputs": [],
      "name": "name",
      "outputs": [
        {
          "internalType": "string",
          "name": "",
          "type": "string"
        }
      ],
      "stateMutability": "view",
      "type": "function"
    },
    {
      "inputs": [],
      "name": "owner",
      "outputs": [
        {
          "internalType": "address",
          "name": "",
          "type": "address"
        }
      ],
      "stateMutability": "view",
      "type": "function"
    },
    {
      "inputs": [
        {
          "internalType": "uint256",
          "name": "tokenId",
          "type": "uint256"
        }
      ],
      "name": "ownerOf",
      "outputs": [
        {
          "internalType": "address",
          "name": "",
          "type": "address"
        }
      ],
      "stateMutability": "view",
      "type": "function"
    },
    {
      "inputs": [],
      "name": "renounceOwnership",
      "outputs": [],
      "stateMutability": "nonpayable",
      "type": "function"
    },
    {
      "inputs": [
        {
          "internalType": "address",
          "name": "from",
          "type": "address"
        },
        {
          "internalType": "address",
          "name": "to",
          "type": "address"
        },
        {
          "internalType": "uint256",
          "name": "tokenId",
          "type": "uint256"
        }
      ],
      "name": "safeTransferFrom",
      "outputs": [],
      "stateMutability": "nonpayable",
      "type": "function"
    },
    {
      "inputs": [
        {
          "internalType": "address",
          "name": "from",
          "type": "address"
        },
        {
          "internalType": "address",
          "name": "to",
          "type": "address"
        },
        {
          "internalType": "uint256",
          "name": "tokenId",
          "type": "uint256"
        },
        {
          "internalType": "bytes",
          "name": "_data",
          "type": "bytes"
        }
      ],
      "name": "safeTransferFrom",
      "outputs": [],
      "stateMutability": "nonpayable",
      "type": "function"
    },
    {
      "inputs": [
        {
          "internalType": "address",
          "name": "operator",
          "type": "address"
        },
        {
          "internalType": "bool",
          "name": "approved",
          "type": "bool"
        }
      ],
      "name": "setApprovalForAll",
      "outputs": [],
      "stateMutability": "nonpayable",
      "type": "function"
    },
    {
      "inputs": [
        {
          "internalType": "bytes4",
          "name": "interfaceId",
          "type": "bytes4"
        }
      ],
      "name": "supportsInterface",
      "outputs": [
        {
          "internalType": "bool",
          "name": "",
          "type": "bool"
        }
      ],
      "stateMutability": "view",
      "type": "function"
    },
    {
      "inputs": [],
      "name": "symbol",
      "outputs": [
        {
          "internalType": "string",
          "name": "",
          "type": "string"
        }
      ],
      "stateMutability": "view",
      "type": "function"
    },
    {
      "inputs": [
        {
          "internalType": "uint256",
          "name": "tokenId",
          "type": "uint256"
        }
      ],
      "name": "tokenURI",
      "outputs": [
        {
          "internalType": "string",
          "name": "",
          "type": "string"
        }
      ],
      "stateMutability": "view",
      "type": "function"
    },
    {
      "inputs": [
        {
          "internalType": "address",
          "name": "from",
          "type": "address"
        },
        {
          "internalType": "address",
          "name": "to",
          "type": "address"
        },
        {
          "internalType": "uint256",
          "name": "tokenId",
          "type": "uint256"
        }
      ],
      "name": "transferFrom",
      "outputs": [],
      "stateMutability": "nonpayable",
      "type": "function"
    },
    {
      "inputs": [
        {
          "internalType": "address",
          "name": "newOwner",
          "type": "address"
        }
      ],
      "name": "transferOwnership",
      "outputs": [],
      "stateMutability": "nonpayable",
      "type": "function"
    }
  ],
  "bytecode": "0x600780546001600160a01b031916905560a06040819052600060808190526200002b9160089162000139565b503480156200003957600080fd5b5060405162001c9738038062001c978339810160408190526200005c9162000292565b8351849084906200007590600090602085019062000139565b5080516200008b90600190602084019062000139565b505050620000a8620000a2620000e360201b60201c565b620000e7565b600780546001600160a01b0319166001600160a01b0384161790558051620000d890600890602084019062000139565b505050505062000393565b3390565b600680546001600160a01b038381166001600160a01b0319831681179093556040519116919082907f8be0079c531659141344cd1fd0a4f28419497f9722a3daafe3b4186f6b6457e090600090a35050565b828054620001479062000340565b90600052602060002090601f0160209004810192826200016b5760008555620001b6565b82601f106200018657805160ff1916838001178555620001b6565b82800160010185558215620001b6579182015b82811115620001b657825182559160200191906001019062000199565b50620001c4929150620001c8565b5090565b5b80821115620001c45760008155600101620001c9565b600082601f830112620001f0578081fd5b81516001600160401b03808211156200020d576200020d6200037d565b604051601f8301601f19908116603f011681019082821181831017156200023857620002386200037d565b8160405283815260209250868385880101111562000254578485fd5b8491505b8382101562000277578582018301518183018401529082019062000258565b838211156200028857848385830101525b9695505050505050565b60008060008060808587031215620002a8578384fd5b84516001600160401b0380821115620002bf578586fd5b620002cd88838901620001df565b95506020870151915080821115620002e3578485fd5b620002f188838901620001df565b604088015190955091506001600160a01b038216821462000310578384fd5b60608701519193508082111562000325578283fd5b506200033487828801620001df565b91505092959194509250565b600181811c908216806200035557607f821691505b602082108114156200037757634e487b7160e01b600052602260045260246000fd5b50919050565b634e487b7160e01b600052604160045260246000fd5b6118f480620003a36000396000f3fe608060405234801561001057600080fd5b50600436106101515760003560e01c806370a08231116100cd578063b88d4fde11610081578063d2f7265a11610066578063d2f7265a146102a2578063e985e9c5146102b5578063f2fde38b146102f157600080fd5b8063b88d4fde1461027c578063c87b56dd1461028f57600080fd5b80638da5cb5b116100b25780638da5cb5b1461025057806395d89b4114610261578063a22cb4651461026957600080fd5b806370a0823114610227578063715018a61461024857600080fd5b806323b872dd11610124578063392f37e911610109578063392f37e9146101f957806342842e0e146102015780636352211e1461021457600080fd5b806323b872dd146101d357806328a09e94146101e657600080fd5b806301ffc9a71461015657806306fdde031461017e578063081812fc14610193578063095ea7b3146101be575b600080fd5b61016961016436600461170d565b610304565b60405190151581526020015b60405180910390f35b6101866103a1565b60405161017591906117e4565b6101a66101a1366004611745565b610433565b6040516001600160a01b039091168152602001610175565b6101d16101cc3660046116e4565b6104cd565b005b6101d16101e136600461159a565b6105ff565b6101d16101f4366004611745565b610686565b610186610787565b6101d161020f36600461159a565b610815565b6101a6610222366004611745565b610830565b61023a610235366004611547565b6108bb565b604051908152602001610175565b6101d1610955565b6006546001600160a01b03166101a6565b6101866109bb565b6101d16102773660046116aa565b6109ca565b6101d161028a3660046115d5565b6109d9565b61018661029d366004611745565b610a67565b6007546101a6906001600160a01b031681565b6101696102c3366004611568565b6001600160a01b03918216600090815260056020908152604080832093909416825291909152205460ff1690565b6101d16102ff366004611547565b610b86565b60006001600160e01b031982167f80ac58cd00000000000000000000000000000000000000000000000000000000148061036757506001600160e01b031982167f5b5e139f00000000000000000000000000000000000000000000000000000000145b8061039b57507f01ffc9a7000000000000000000000000000000000000000000000000000000006001600160e01b03198316145b92915050565b6060600080546103b090611826565b80601f01602080910402602001604051908101604052809291908181526020018280546103dc90611826565b80156104295780601f106103fe57610100808354040283529160200191610429565b820191906000526020600020905b81548152906001019060200180831161040c57829003601f168201915b5050505050905090565b6000818152600260205260408120546001600160a01b03166104b15760405162461bcd60e51b815260206004820152602c60248201527f4552433732313a20617070726f76656420717565727920666f72206e6f6e657860448201526b34b9ba32b73a103a37b5b2b760a11b60648201526084015b60405180910390fd5b506000908152600460205260409020546001600160a01b031690565b60006104d882610830565b9050806001600160a01b0316836001600160a01b031614156105625760405162461bcd60e51b815260206004820152602160248201527f4552433732313a20617070726f76616c20746f2063757272656e74206f776e6560448201527f720000000000000000000000000000000000000000000000000000000000000060648201526084016104a8565b336001600160a01b038216148061057e575061057e81336102c3565b6105f05760405162461bcd60e51b815260206004820152603860248201527f4552433732313a20617070726f76652063616c6c6572206973206e6f74206f7760448201527f6e6572206e6f7220617070726f76656420666f7220616c6c000000000000000060648201526084016104a8565b6105fa8383610c68565b505050565b6106093382610ce3565b61067b5760405162461bcd60e51b815260206004820152603160248201527f4552433732313a207472616e736665722063616c6c6572206973206e6f74206f60448201527f776e6572206e6f7220617070726f76656400000000000000000000000000000060648201526084016104a8565b6105fa838383610dda565b6006546001600160a01b031633146106e05760405162461bcd60e51b815260206004820181905260248201527f4f776e61626c653a2063616c6c6572206973206e6f7420746865206f776e657260448201526064016104a8565b60015b818111610706576106f43382610fba565b806106fe81611861565b9150506106e3565b506007546040517f98c986c9000000000000000000000000000000000000000000000000000000008152600481018390523360248201526001600160a01b03909116906398c986c990604401600060405180830381600087803b15801561076c57600080fd5b505af1158015610780573d6000803e3d6000fd5b5050505050565b6008805461079490611826565b80601f01602080910402602001604051908101604052809291908181526020018280546107c090611826565b801561080d5780601f106107e25761010080835404028352916020019161080d565b820191906000526020600020905b8154815290600101906020018083116107f057829003601f168201915b505050505081565b6105fa838383604051806020016040528060008152506109d9565b6000818152600260205260408120546001600160a01b03168061039b5760405162461bcd60e51b815260206004820152602960248201527f4552433732313a206f776e657220717565727920666f72206e6f6e657869737460448201527f656e7420746f6b656e000000000000000000000000000000000000000000000060648201526084016104a8565b60006001600160a01b0382166109395760405162461bcd60e51b815260206004820152602a60248201527f4552433732313a2062616c616e636520717565727920666f7220746865207a6560448201527f726f20616464726573730000000000000000000000000000000000000000000060648201526084016104a8565b506001600160a01b031660009081526003602052604090205490565b6006546001600160a01b031633146109af5760405162461bcd60e51b815260206004820181905260248201527f4f776e61626c653a2063616c6c6572206973206e6f7420746865206f776e657260448201526064016104a8565b6109b96000611111565b565b6060600180546103b090611826565b6109d5338383611170565b5050565b6109e33383610ce3565b610a555760405162461bcd60e51b815260206004820152603160248201527f4552433732313a207472616e736665722063616c6c6572206973206e6f74206f60448201527f776e6572206e6f7220617070726f76656400000000000000000000000000000060648201526084016104a8565b610a618484848461123f565b50505050565b6000818152600260205260409020546060906001600160a01b0316610af45760405162461bcd60e51b815260206004820152602f60248201527f4552433732314d657461646174613a2055524920717565727920666f72206e6f60448201527f6e6578697374656e7420746f6b656e000000000000000000000000000000000060648201526084016104a8565b60088054610b0190611826565b80601f0160208091040260200160405190810160405280929190818152602001828054610b2d90611826565b8015610b7a5780601f10610b4f57610100808354040283529160200191610b7a565b820191906000526020600020905b815481529060010190602001808311610b5d57829003601f168201915b50505050509050919050565b6006546001600160a01b03163314610be05760405162461bcd60e51b815260206004820181905260248201527f4f776e61626c653a2063616c6c6572206973206e6f7420746865206f776e657260448201526064016104a8565b6001600160a01b038116610c5c5760405162461bcd60e51b815260206004820152602660248201527f4f776e61626c653a206e6577206f776e657220697320746865207a65726f206160448201527f646472657373000000000000000000000000000000000000000000000000000060648201526084016104a8565b610c6581611111565b50565b6000818152600460205260409020805473ffffffffffffffffffffffffffffffffffffffff19166001600160a01b0384169081179091558190610caa82610830565b6001600160a01b03167f8c5be1e5ebec7d5bd14f71427d1e84f3dd0314c0f7b2291e5b200ac8c7c3b92560405160405180910390a45050565b6000818152600260205260408120546001600160a01b0316610d5c5760405162461bcd60e51b815260206004820152602c60248201527f4552433732313a206f70657261746f7220717565727920666f72206e6f6e657860448201526b34b9ba32b73a103a37b5b2b760a11b60648201526084016104a8565b6000610d6783610830565b9050806001600160a01b0316846001600160a01b03161480610dae57506001600160a01b0380821660009081526005602090815260408083209388168352929052205460ff165b80610dd25750836001600160a01b0316610dc784610433565b6001600160a01b0316145b949350505050565b826001600160a01b0316610ded82610830565b6001600160a01b031614610e695760405162461bcd60e51b815260206004820152602560248201527f4552433732313a207472616e736665722066726f6d20696e636f72726563742060448201527f6f776e657200000000000000000000000000000000000000000000000000000060648201526084016104a8565b6001600160a01b038216610ee45760405162461bcd60e51b8152602060048201526024808201527f4552433732313a207472616e7366657220746f20746865207a65726f2061646460448201527f726573730000000000000000000000000000000000000000000000000000000060648201526084016104a8565b610eef600082610c68565b6001600160a01b0383166000908152600360205260408120805460019290610f1890849061180f565b90915550506001600160a01b0382166000908152600360205260408120805460019290610f469084906117f7565b9091555050600081815260026020526040808220805473ffffffffffffffffffffffffffffffffffffffff19166001600160a01b0386811691821790925591518493918716917fddf252ad1be2c89b69c2b068fc378daa952ba7f163c4a11628f55a4df523b3ef91a46105fa8383836112c8565b6001600160a01b0382166110105760405162461bcd60e51b815260206004820181905260248201527f4552433732313a206d696e7420746f20746865207a65726f206164647265737360448201526064016104a8565b6000818152600260205260409020546001600160a01b0316156110755760405162461bcd60e51b815260206004820152601c60248201527f4552433732313a20746f6b656e20616c7265616479206d696e7465640000000060448201526064016104a8565b6001600160a01b038216600090815260036020526040812080546001929061109e9084906117f7565b9091555050600081815260026020526040808220805473ffffffffffffffffffffffffffffffffffffffff19166001600160a01b03861690811790915590518392907fddf252ad1be2c89b69c2b068fc378daa952ba7f163c4a11628f55a4df523b3ef908290a46109d5600083836112c8565b600680546001600160a01b0383811673ffffffffffffffffffffffffffffffffffffffff19831681179093556040519116919082907f8be0079c531659141344cd1fd0a4f28419497f9722a3daafe3b4186f6b6457e090600090a35050565b816001600160a01b0316836001600160a01b031614156111d25760405162461bcd60e51b815260206004820152601960248201527f4552433732313a20617070726f766520746f2063616c6c65720000000000000060448201526064016104a8565b6001600160a01b03838116600081815260056020908152604080832094871680845294825291829020805460ff191686151590811790915591519182527f17307eab39ab6107e8899845ad3d59bd9653f200f220920489ca2b5937696c31910160405180910390a3505050565b61124a848484610dda565b611256848484846113c8565b610a615760405162461bcd60e51b815260206004820152603260248201527f4552433732313a207472616e7366657220746f206e6f6e20455243373231526560448201527f63656976657220696d706c656d656e746572000000000000000000000000000060648201526084016104a8565b6001600160a01b0383166112db57505050565b6001600160a01b03821661136e576007546040517f5a0ad820000000000000000000000000000000000000000000000000000000008152600481018390526001600160a01b03858116602483015290911690635a0ad820906044015b600060405180830381600087803b15801561135157600080fd5b505af1158015611365573d6000803e3d6000fd5b50505050505050565b6007546040517fb9ce6b14000000000000000000000000000000000000000000000000000000008152600481018390526001600160a01b03858116602483015284811660448301529091169063b9ce6b1490606401611337565b60006001600160a01b0384163b1561152057604051630a85bd0160e11b81526001600160a01b0385169063150b7a029061140c9033908990889088906004016117a8565b602060405180830381600087803b15801561142657600080fd5b505af1925050508015611456575060408051601f3d908101601f1916820190925261145391810190611729565b60015b611506573d808015611484576040519150601f19603f3d011682016040523d82523d6000602084013e611489565b606091505b5080516114fe5760405162461bcd60e51b815260206004820152603260248201527f4552433732313a207472616e7366657220746f206e6f6e20455243373231526560448201527f63656976657220696d706c656d656e746572000000000000000000000000000060648201526084016104a8565b805181602001fd5b6001600160e01b031916630a85bd0160e11b149050610dd2565b506001949350505050565b80356001600160a01b038116811461154257600080fd5b919050565b600060208284031215611558578081fd5b6115618261152b565b9392505050565b6000806040838503121561157a578081fd5b6115838361152b565b91506115916020840161152b565b90509250929050565b6000806000606084860312156115ae578081fd5b6115b78461152b565b92506115c56020850161152b565b9150604084013590509250925092565b600080600080608085870312156115ea578081fd5b6115f38561152b565b93506116016020860161152b565b925060408501359150606085013567ffffffffffffffff80821115611624578283fd5b818701915087601f830112611637578283fd5b81358181111561164957611649611892565b604051601f8201601f19908116603f0116810190838211818310171561167157611671611892565b816040528281528a6020848701011115611689578586fd5b82602086016020830137918201602001949094529598949750929550505050565b600080604083850312156116bc578182fd5b6116c58361152b565b9150602083013580151581146116d9578182fd5b809150509250929050565b600080604083850312156116f6578182fd5b6116ff8361152b565b946020939093013593505050565b60006020828403121561171e578081fd5b8135611561816118a8565b60006020828403121561173a578081fd5b8151611561816118a8565b600060208284031215611756578081fd5b5035919050565b60008151808452815b8181101561178257602081850181015186830182015201611766565b818111156117935782602083870101525b50601f01601f19169290920160200192915050565b60006001600160a01b038087168352808616602084015250836040830152608060608301526117da608083018461175d565b9695505050505050565b602081526000611561602083018461175d565b6000821982111561180a5761180a61187c565b500190565b6000828210156118215761182161187c565b500390565b600181811c9082168061183a57607f821691505b6020821081141561185b57634e487b7160e01b600052602260045260246000fd5b50919050565b60006000198214156118755761187561187c565b5060010190565b634e487b7160e01b600052601160045260246000fd5b634e487b7160e01b600052604160045260246000fd5b6001600160e01b031981168114610c6557600080fdfea2646970667358221220655461d949ed8513038bf180229db2f176fe9cf296d7077a65416011f857c45964736f6c63430008040033",
  "linkReferences": {},
  "deployedLinkReferences": {}
}